{
  "_format": "hh-sol-artifact-1",
  "contractName": "ContentNFT",
  "sourceName": "contracts/ContentNFT.sol",
  "abi": [
    {
      "inputs": [
        {
          "internalType": "address",
          "name": "target",
          "type": "address"
        }
      ],
      "name": "AddressEmptyCode",
      "type": "error"
    },
    {
      "inputs": [
        {
          "internalType": "address",
          "name": "account",
          "type": "address"
        }
      ],
      "name": "AddressInsufficientBalance",
      "type": "error"
    },
    {
      "inputs": [
        {
          "internalType": "address",
          "name": "sender",
          "type": "address"
        },
        {
          "internalType": "uint256",
          "name": "tokenId",
          "type": "uint256"
        },
        {
          "internalType": "address",
          "name": "owner",
          "type": "address"
        }
      ],
      "name": "ERC721IncorrectOwner",
      "type": "error"
    },
    {
      "inputs": [
        {
          "internalType": "address",
          "name": "operator",
          "type": "address"
        },
        {
          "internalType": "uint256",
          "name": "tokenId",
          "type": "uint256"
        }
      ],
      "name": "ERC721InsufficientApproval",
      "type": "error"
    },
    {
      "inputs": [
        {
          "internalType": "address",
          "name": "approver",
          "type": "address"
        }
      ],
      "name": "ERC721InvalidApprover",
      "type": "error"
    },
    {
      "inputs": [
        {
          "internalType": "address",
          "name": "operator",
          "type": "address"
        }
      ],
      "name": "ERC721InvalidOperator",
      "type": "error"
    },
    {
      "inputs": [
        {
          "internalType": "address",
          "name": "owner",
          "type": "address"
        }
      ],
      "name": "ERC721InvalidOwner",
      "type": "error"
    },
    {
      "inputs": [
        {
          "internalType": "address",
          "name": "receiver",
          "type": "address"
        }
      ],
      "name": "ERC721InvalidReceiver",
      "type": "error"
    },
    {
      "inputs": [
        {
          "internalType": "address",
          "name": "sender",
          "type": "address"
        }
      ],
      "name": "ERC721InvalidSender",
      "type": "error"
    },
    {
      "inputs": [
        {
          "internalType": "uint256",
          "name": "tokenId",
          "type": "uint256"
        }
      ],
      "name": "ERC721NonexistentToken",
      "type": "error"
    },
    {
      "inputs": [],
      "name": "FailedInnerCall",
      "type": "error"
    },
    {
      "inputs": [],
      "name": "InvalidInitialization",
      "type": "error"
    },
    {
      "inputs": [],
      "name": "NotInitializing",
      "type": "error"
    },
    {
      "inputs": [
        {
          "internalType": "address",
          "name": "token",
          "type": "address"
        }
      ],
      "name": "SafeERC20FailedOperation",
      "type": "error"
    },
    {
      "anonymous": false,
      "inputs": [
        {
          "indexed": true,
          "internalType": "address",
          "name": "owner",
          "type": "address"
        },
        {
          "indexed": true,
          "internalType": "address",
          "name": "approved",
          "type": "address"
        },
        {
          "indexed": true,
          "internalType": "uint256",
          "name": "tokenId",
          "type": "uint256"
        }
      ],
      "name": "Approval",
      "type": "event"
    },
    {
      "anonymous": false,
      "inputs": [
        {
          "indexed": true,
          "internalType": "address",
          "name": "owner",
          "type": "address"
        },
        {
          "indexed": true,
          "internalType": "address",
          "name": "operator",
          "type": "address"
        },
        {
          "indexed": false,
          "internalType": "bool",
          "name": "approved",
          "type": "bool"
        }
      ],
      "name": "ApprovalForAll",
      "type": "event"
    },
    {
      "anonymous": false,
      "inputs": [
        {
          "indexed": true,
          "internalType": "address",
          "name": "from",
          "type": "address"
        },
        {
          "indexed": true,
          "internalType": "uint256",
          "name": "tokenId",
          "type": "uint256"
        }
      ],
      "name": "Burned",
      "type": "event"
    },
    {
      "anonymous": false,
      "inputs": [
        {
          "indexed": false,
          "internalType": "uint64",
          "name": "version",
          "type": "uint64"
        }
      ],
      "name": "Initialized",
      "type": "event"
    },
    {
      "anonymous": false,
      "inputs": [
        {
          "indexed": true,
          "internalType": "uint256",
          "name": "tokenId",
          "type": "uint256"
        },
        {
          "indexed": true,
          "internalType": "uint256",
          "name": "newFee",
          "type": "uint256"
        }
      ],
      "name": "LoyaltyFeeChanged",
      "type": "event"
    },
    {
      "anonymous": false,
      "inputs": [
        {
          "indexed": true,
          "internalType": "address",
          "name": "from",
          "type": "address"
        },
        {
          "indexed": true,
          "internalType": "address",
          "name": "to",
          "type": "address"
        },
        {
          "indexed": true,
          "internalType": "uint256",
          "name": "tokenId",
          "type": "uint256"
        }
      ],
      "name": "Transfer",
      "type": "event"
    },
    {
      "anonymous": false,
      "inputs": [
        {
          "indexed": true,
          "internalType": "address",
          "name": "from",
          "type": "address"
        },
        {
          "indexed": true,
          "internalType": "uint256",
          "name": "tokenId",
          "type": "uint256"
        },
        {
          "indexed": true,
          "internalType": "string",
          "name": "nftURI",
          "type": "string"
        }
      ],
      "name": "minted",
      "type": "event"
    },
    {
      "inputs": [],
      "name": "USDC",
      "outputs": [
        {
          "internalType": "address",
          "name": "",
          "type": "address"
        }
      ],
      "stateMutability": "view",
      "type": "function"
    },
    {
      "inputs": [],
      "name": "USDC_token",
      "outputs": [
        {
          "internalType": "contract IERC20",
          "name": "",
          "type": "address"
        }
      ],
      "stateMutability": "view",
      "type": "function"
    },
    {
      "inputs": [
        {
          "internalType": "address",
          "name": "to",
          "type": "address"
        },
        {
          "internalType": "uint256",
          "name": "tokenId",
          "type": "uint256"
        }
      ],
      "name": "approve",
      "outputs": [],
      "stateMutability": "nonpayable",
      "type": "function"
    },
    {
      "inputs": [
        {
          "internalType": "address",
          "name": "owner",
          "type": "address"
        }
      ],
      "name": "balanceOf",
      "outputs": [
        {
          "internalType": "uint256",
          "name": "",
          "type": "uint256"
        }
      ],
      "stateMutability": "view",
      "type": "function"
    },
    {
      "inputs": [
        {
          "internalType": "uint256",
          "name": "_tokenId",
          "type": "uint256"
        }
      ],
      "name": "burn",
      "outputs": [
        {
          "internalType": "uint256",
          "name": "",
          "type": "uint256"
        }
      ],
      "stateMutability": "nonpayable",
      "type": "function"
    },
    {
      "inputs": [],
      "name": "burnFee",
      "outputs": [
        {
          "internalType": "uint256",
          "name": "",
          "type": "uint256"
        }
      ],
      "stateMutability": "view",
      "type": "function"
    },
    {
      "inputs": [
        {
          "internalType": "uint256",
          "name": "",
          "type": "uint256"
        }
      ],
      "name": "creators",
      "outputs": [
        {
          "internalType": "address",
          "name": "",
          "type": "address"
        }
      ],
      "stateMutability": "view",
      "type": "function"
    },
    {
      "inputs": [],
      "name": "factory",
      "outputs": [
        {
          "internalType": "address",
          "name": "",
          "type": "address"
        }
      ],
      "stateMutability": "view",
      "type": "function"
    },
    {
      "inputs": [
        {
          "internalType": "uint256",
          "name": "tokenId",
          "type": "uint256"
        }
      ],
      "name": "getApproved",
      "outputs": [
        {
          "internalType": "address",
          "name": "",
          "type": "address"
        }
      ],
      "stateMutability": "view",
      "type": "function"
    },
    {
      "inputs": [
        {
          "internalType": "uint256",
          "name": "_tokenId",
          "type": "uint256"
        }
      ],
      "name": "getLoyaltyFee",
      "outputs": [
        {
          "internalType": "uint256",
          "name": "",
          "type": "uint256"
        }
      ],
      "stateMutability": "view",
      "type": "function"
    },
    {
      "inputs": [
        {
          "internalType": "uint256",
          "name": "_tokenId",
          "type": "uint256"
        }
      ],
      "name": "getTransferHistory",
      "outputs": [
        {
          "components": [
            {
              "internalType": "address",
              "name": "from",
              "type": "address"
            },
            {
              "internalType": "address",
              "name": "to",
              "type": "address"
            },
            {
              "internalType": "uint256",
              "name": "timestamp",
              "type": "uint256"
            }
          ],
          "internalType": "struct ContentNFT.TransferHistory[]",
          "name": "",
          "type": "tuple[]"
        }
      ],
      "stateMutability": "view",
      "type": "function"
    },
    {
      "inputs": [
        {
          "internalType": "string",
          "name": "_name",
          "type": "string"
        },
        {
          "internalType": "string",
          "name": "_symbol",
          "type": "string"
        },
        {
          "internalType": "address",
          "name": "_owner",
          "type": "address"
        },
        {
          "internalType": "uint256",
          "name": "_mintFee",
          "type": "uint256"
        },
        {
          "internalType": "uint256",
          "name": "_burnFee",
          "type": "uint256"
        },
        {
          "internalType": "address",
          "name": "_USDC",
          "type": "address"
        },
        {
          "internalType": "address",
          "name": "_marketplace",
          "type": "address"
        }
      ],
      "name": "initialize",
      "outputs": [],
      "stateMutability": "nonpayable",
      "type": "function"
    },
    {
      "inputs": [
        {
          "internalType": "address",
          "name": "owner",
          "type": "address"
        },
        {
          "internalType": "address",
          "name": "operator",
          "type": "address"
        }
      ],
      "name": "isApprovedForAll",
      "outputs": [
        {
          "internalType": "bool",
          "name": "",
          "type": "bool"
        }
      ],
      "stateMutability": "view",
      "type": "function"
    },
    {
      "inputs": [],
      "name": "marketplace",
      "outputs": [
        {
          "internalType": "address",
          "name": "",
          "type": "address"
        }
      ],
      "stateMutability": "view",
      "type": "function"
    },
    {
      "inputs": [
        {
          "internalType": "string",
          "name": "_nftURI",
          "type": "string"
        }
      ],
      "name": "mint",
      "outputs": [
        {
          "internalType": "uint256",
          "name": "",
          "type": "uint256"
        }
      ],
      "stateMutability": "nonpayable",
      "type": "function"
    },
    {
      "inputs": [],
      "name": "mintFee",
      "outputs": [
        {
          "internalType": "uint256",
          "name": "",
          "type": "uint256"
        }
      ],
      "stateMutability": "view",
      "type": "function"
    },
    {
      "inputs": [],
      "name": "name",
      "outputs": [
        {
          "internalType": "string",
          "name": "",
          "type": "string"
        }
      ],
      "stateMutability": "view",
      "type": "function"
    },
    {
      "inputs": [],
      "name": "owner",
      "outputs": [
        {
          "internalType": "address",
          "name": "",
          "type": "address"
        }
      ],
      "stateMutability": "view",
      "type": "function"
    },
    {
      "inputs": [
        {
          "internalType": "uint256",
          "name": "tokenId",
          "type": "uint256"
        }
      ],
      "name": "ownerOf",
      "outputs": [
        {
          "internalType": "address",
          "name": "",
          "type": "address"
        }
      ],
      "stateMutability": "view",
      "type": "function"
    },
    {
      "inputs": [
        {
          "internalType": "address",
          "name": "from",
          "type": "address"
        },
        {
          "internalType": "address",
          "name": "to",
          "type": "address"
        },
        {
          "internalType": "uint256",
          "name": "tokenId",
          "type": "uint256"
        }
      ],
      "name": "safeTransferFrom",
      "outputs": [],
      "stateMutability": "nonpayable",
      "type": "function"
    },
    {
      "inputs": [
        {
          "internalType": "address",
          "name": "from",
          "type": "address"
        },
        {
          "internalType": "address",
          "name": "to",
          "type": "address"
        },
        {
          "internalType": "uint256",
          "name": "tokenId",
          "type": "uint256"
        },
        {
          "internalType": "bytes",
          "name": "data",
          "type": "bytes"
        }
      ],
      "name": "safeTransferFrom",
      "outputs": [],
      "stateMutability": "nonpayable",
      "type": "function"
    },
    {
      "inputs": [
        {
          "internalType": "address",
          "name": "operator",
          "type": "address"
        },
        {
          "internalType": "bool",
          "name": "approved",
          "type": "bool"
        }
      ],
      "name": "setApprovalForAll",
      "outputs": [],
      "stateMutability": "nonpayable",
      "type": "function"
    },
    {
      "inputs": [
        {
          "internalType": "uint256",
          "name": "_tokenId",
          "type": "uint256"
        },
        {
          "internalType": "uint256",
          "name": "_loyaltyFee",
          "type": "uint256"
        }
      ],
      "name": "setLoyaltyFee",
      "outputs": [],
      "stateMutability": "nonpayable",
      "type": "function"
    },
    {
      "inputs": [
        {
          "internalType": "bytes4",
          "name": "interfaceId",
          "type": "bytes4"
        }
      ],
      "name": "supportsInterface",
      "outputs": [
        {
          "internalType": "bool",
          "name": "",
          "type": "bool"
        }
      ],
      "stateMutability": "view",
      "type": "function"
    },
    {
      "inputs": [],
      "name": "symbol",
      "outputs": [
        {
          "internalType": "string",
          "name": "",
          "type": "string"
        }
      ],
      "stateMutability": "view",
      "type": "function"
    },
    {
      "inputs": [],
      "name": "tokenNumber",
      "outputs": [
        {
          "internalType": "uint256",
          "name": "",
          "type": "uint256"
        }
      ],
      "stateMutability": "view",
      "type": "function"
    },
    {
      "inputs": [
        {
          "internalType": "uint256",
          "name": "_tokenId",
          "type": "uint256"
        }
      ],
      "name": "tokenURI",
      "outputs": [
        {
          "internalType": "string",
          "name": "",
          "type": "string"
        }
      ],
      "stateMutability": "view",
      "type": "function"
    },
    {
      "inputs": [
        {
          "internalType": "address",
          "name": "_from",
          "type": "address"
        },
        {
          "internalType": "address",
          "name": "_to",
          "type": "address"
        },
        {
          "internalType": "uint256",
          "name": "_tokenId",
          "type": "uint256"
        }
      ],
      "name": "transferFrom",
      "outputs": [],
      "stateMutability": "nonpayable",
      "type": "function"
    }
  ],
  "bytecode": "0x6080806040523461001657611d85908161001c8239f35b600080fdfe608080604052600436101561001357600080fd5b60003560e01c90816301ffc9a7146114245750806306fdde0314611385578063081812fc1461133a578063095ea7b31461125357806313966db51461123557806323b872dd1461121e578063403c94cb146111f557806340f5e56b14610c1a57806342842e0e14610be157806342966c6814610a935780635d42053314610a675780636352211e14610a3757806370a08231146109e2578063898d56ce1461094957806389a30271146109205780638bb27d02146108275780638da5cb5b146107fe57806395d89b411461075f578063a22cb465146106bf578063abc8c7af14610696578063b88d4fde14610635578063c45a01551461060c578063c87b56dd14610532578063cd53d08e146104fe578063d85d3d27146101e2578063e985e9c514610194578063f282a8e1146101765763fce589d81461015357600080fd5b34610171576000366003190112610171576020600554604051908152f35b600080fd5b34610171576000366003190112610171576020600354604051908152f35b34610171576040366003190112610171576101ad6114d7565b6101be6101b86114ed565b91611944565b9060018060a01b0316600052602052602060ff604060002054166040519015158152f35b3461017157602080600319360112610171576001600160401b03600435818111610171576102149036906004016115c6565b6000546001600160a01b039290831633036104af5760045480610493575b506003908154331561047a5780600052600080516020611cd0833981519152948587526040600020541690811515918261045b575b6102703361190b565b9660019788815401905582600052885260406000203360018060a01b03198254161790553390600080516020611cb0833981519152600080a461044257815460005260028552604060002090835190811161042c576102cf82546115e4565b601f81116103e3575b508086601f821160011461038357600091610378575b5060001982851b1c191690851b1790555b805492600019841461036257830180915582116103625761032d90836040519282848094519384920161148f565b8101039020906040519181337fe35f58f3dd0de0dcb7ee3d146839df1d43b2cd37944051e1767d6676c30cbc34600080a48152f35b634e487b7160e01b600052601160045260246000fd5b9050840151876102ee565b869250601f1982169084600052886000209160005b8a8282106103cd57505083116103b5575b5050811b0190556102ff565b86015160001983871b60f8161c1916905587806103a9565b838a015185558a96909401939283019201610398565b8260005286600020601f830160051c810191888410610422575b601f0160051c019086905b8281106104165750506102d8565b60008155018690610408565b90915081906103fd565b634e487b7160e01b600052604160045260246000fd5b6040516339e3563760e11b815260006004820152602490fd5b61046482611bd2565b61046d8161190b565b8054600019019055610267565b604051633250574960e11b815260006004820152602490fd5b6104a99084600854168560015416903390611ad8565b84610232565b60405162461bcd60e51b815260048101859052602160248201527f4f6e6c79206f776e65722063616e2063616c6c20746869732066756e6374696f6044820152603760f91b6064820152608490fd5b34610171576020366003190112610171576004356000526009602052602060018060a01b0360406000205416604051908152f35b34610171576020806003193601126101715760043560005260028152604060002090604051918260008254610566816115e4565b93848452600191866001821691826000146105ea5750506001146105ab575b505061059392500383611553565b6105a76040519282849384528301906114b2565b0390f35b85925060005281600020906000915b8583106105d257505061059393508201018580610585565b805483890185015287945086939092019181016105ba565b925093505061059394915060ff191682840152151560051b8201018580610585565b34610171576000366003190112610171576001546040516001600160a01b039091168152602090f35b346101715760803660031901126101715761064e6114d7565b6106566114ed565b606435916001600160401b03831161017157366023840112156101715761068a61069493369060248160040135910161158f565b916044359161197d565b005b34610171576000366003190112610171576007546040516001600160a01b039091168152602090f35b34610171576040366003190112610171576106d86114d7565b60243590811515809203610171576001600160a01b0316908115610746576106ff33611944565b82600052602052604060002060ff1981541660ff83161790556040519081527f17307eab39ab6107e8899845ad3d59bd9653f200f220920489ca2b5937696c3160203392a3005b604051630b61174360e31b815260048101839052602490fd5b3461017157600036600319011261017157604051600080516020611d308339815191528054826000610790836115e4565b92838352602094600191866001821691826000146105ea5750506001146107bf57505061059392500383611553565b85925060005281600020906000915b8583106107e657505061059393508201018580610585565b805483890185015287945086939092019181016107ce565b34610171576000366003190112610171576000546040516001600160a01b039091168152602090f35b346101715760208060031936011261017157600435600052600b815260406000209081546001600160401b03811161042c576040519061086c838260051b0183611553565b8082528282018094600052836000206000915b8383106108e15760408051878152865181890181905289928201908960005b8281106108ab5784840385f35b855180516001600160a01b039081168652818401511685840152604090810151908501529481019460609093019260010161089e565b6003866001926040516108f381611538565b848060a01b038087541682528587015416838201526002860154604082015281520192019201919061087f565b34610171576000366003190112610171576006546040516001600160a01b039091168152602090f35b346101715760403660031901126101715760075460243590600435906001600160a01b031633036109ab5780600052600a602052816040600020557fd3bafc86a595ea40d74c9107ee9c149dd57b442a0f1f3b891e692d309a5689d5600080a3005b60405162461bcd60e51b815260206004820152600f60248201526e24b73b30b634b21031b0b63632b91760891b6044820152606490fd5b34610171576020366003190112610171576109fb6114d7565b6001600160a01b03811615610a1e57610a1560209161190b565b54604051908152f35b6040516322718ad960e21b815260006004820152602490fd5b34610171576020366003190112610171576020610a55600435611aa8565b6040516001600160a01b039091168152f35b3461017157602036600319011261017157600435600052600a6020526020604060002054604051908152f35b34610171576020366003190112610171576004356001600160a01b0380610ab983611aa8565b163303610ba65760055480610b8a575b5081600052816000600080516020611cd083398151915292836020526040822054168015938415610b6c575b8383526020526040822080546001600160a01b0319169055600080516020611cb08339815191528280a4610b545760405160209180337f696de425f79f4a40bc6d2122ca50507f0efbeabbff86a84871b7196ab8ea8df7600080a38152f35b60249060405190637e27328960e01b82526004820152fd5b610b7584611bd2565b610b7e8261190b565b83198154019055610af5565b610ba09082600854168360015416903390611ad8565b82610ac9565b60405162461bcd60e51b815260206004820152601360248201527237b7363c9037bbb732b91031b0b710313ab93760691b6044820152606490fd5b3461017157610bef36611503565b6040519160208301938385106001600160401b0386111761042c57610694946040526000845261197d565b346101715760e0366003190112610171576004356001600160401b03811161017157610c4a9036906004016115c6565b6024356001600160401b03811161017157610c699036906004016115c6565b906044356001600160a01b0380821682036101715760a43581811681036101715760c43594828616860361017157600080516020611d1083398151915254946001600160401b038616801590816111e5575b60011490816111db575b1590816111d2575b506111c05760016001600160401b0319871617600080516020611d108339815191525560ff8660401c1615611193575b610d05611bfd565b610d0d611bfd565b8051906001600160401b03821161042c578190610d38600080516020611c90833981519152546115e4565b601f8111611119575b50602090601f831160011461109257600092611087575b50508160011b916000199060031b1c191617600080516020611c90833981519152555b8051906001600160401b03821161042c578190610da6600080516020611d30833981519152546115e4565b601f811161100a575b50602090601f8311600114610f8857600092610f7d575b50508160011b916000199060031b1c191617600080516020611d30833981519152555b600180546001600160a01b031990811633179091559282811615610f3c578216836000541617600055600160035560643560045560843560055581811615610efc5780828092168460065416176006551682600854161760085580841615610eb75760ff931690600754161760075560401c1615610e6357005b60ff60401b19600080516020611d108339815191525416600080516020611d10833981519152557fc7f505b2f371ae2175ee4913f4499e1f2633a7b5936321eed1cdaeb6115181d2602060405160018152a1005b60405162461bcd60e51b815260206004820152601f60248201527f6d61726b6574706c61636520616464726573732063616e6e6f742062652030006044820152606490fd5b60405162461bcd60e51b815260206004820152601860248201527705553444320616464726573732063616e6e6f7420626520360441b6044820152606490fd5b60405162461bcd60e51b815260206004820152601960248201527806f776e657220616464726573732063616e6e6f74206265203603c1b6044820152606490fd5b015190508780610dc6565b600080516020611d3083398151915260009081528281209350601f198516905b818110610ff25750908460019594939210610fd9575b505050811b01600080516020611d3083398151915255610de9565b015160001960f88460031b161c19169055878080610fbe565b92936020600181928786015181550195019301610fa8565b600080516020611d308339815191526000529091507ff4bad0a69248f59680a4f2b3000328cec71a413447c96781cfe5996daa8c456e601f840160051c8101916020851061107d575b90601f859493920160051c01905b81811061106e5750610daf565b60008155849350600101611061565b9091508190611053565b015190508880610d58565b9250600080516020611c9083398151915260005280600020906000935b601f19841685106110fe576001945083601f198116106110e5575b505050811b01600080516020611c9083398151915255610d7b565b015160001960f88460031b161c191690558880806110ca565b818101518355602094850194600190930192909101906110af565b600080516020611c908339815191526000529091507f37c58c799b6609234b945e882912ee9ad34948a1dfaa20a97485e1a7752bbf81601f840160051c81016020851061118c575b90849392915b601f830160051c8201811061117d575050610d41565b60008155859450600101611167565b5080611161565b68ffffffffffffffffff1986166801000000000000000117600080516020611d1083398151915255610cfd565b60405163f92ee8a960e01b8152600490fd5b90501588610ccd565b303b159150610cc5565b604088901c60ff16159150610cbb565b34610171576000366003190112610171576008546040516001600160a01b039091168152602090f35b346101715761069461122f36611503565b9161161e565b34610171576000366003190112610171576020600454604051908152f35b346101715760403660031901126101715761126c6114d7565b60243561127881611aa8565b33151580611327575b80611307575b6112ef576001600160a01b039283169282918491167f8c5be1e5ebec7d5bd14f71427d1e84f3dd0314c0f7b2291e5b200ac8c7c3b925600080a46000908152600080516020611cf08339815191526020526040902080546001600160a01b0319169091179055005b60405163a9fbf51f60e01b8152336004820152602490fd5b5061131181611944565b3360005260205260ff6040600020541615611287565b506001600160a01b038116331415611281565b346101715760203660031901126101715760043561135781611aa8565b50600052600080516020611cf0833981519152602052602060018060a01b0360406000205416604051908152f35b3461017157600036600319011261017157604051600080516020611c9083398151915280548260006113b6836115e4565b92838352602094600191866001821691826000146105ea5750506001146113e557505061059392500383611553565b85925060005281600020906000915b85831061140c57505061059393508201018580610585565b805483890185015287945086939092019181016113f4565b34610171576020366003190112610171576004359063ffffffff60e01b8216809203610171576020916380ac58cd60e01b811490811561147e575b811561146d575b5015158152f35b6301ffc9a760e01b14905083611466565b635b5e139f60e01b8114915061145f565b60005b8381106114a25750506000910152565b8181015183820152602001611492565b906020916114cb8151809281855285808601910161148f565b601f01601f1916010190565b600435906001600160a01b038216820361017157565b602435906001600160a01b038216820361017157565b6060906003190112610171576001600160a01b0390600435828116810361017157916024359081168103610171579060443590565b606081019081106001600160401b0382111761042c57604052565b90601f801991011681019081106001600160401b0382111761042c57604052565b6001600160401b03811161042c57601f01601f191660200190565b92919261159b82611574565b916115a96040519384611553565b829481845281830111610171578281602093846000960137010152565b9080601f83011215610171578160206115e19335910161158f565b90565b90600182811c92168015611614575b60208310146115fe57565b634e487b7160e01b600052602260045260246000fd5b91607f16916115f3565b600093926001600160a01b038381169182156118f257908187928352600080516020611cd083398151915290602095828752604092848487205416983315158061184a575b50906116758693928b61182b5761190b565b60018154019055838752885282878a600080516020611cb0833981519152878a209960018060a01b03199a848c82541617905580a416968781036118095750808952600a865281892054801515806117fc575b611766575b508852600b8552808820908051966116e488611538565b8752858701948552860194428652815491600160401b831015611752576001830180825583101561173e578392918a60039260029a9b9c522091020196511682875416178655600186019251169082541617905551910155565b634e487b7160e01b8a52603260045260248afd5b634e487b7160e01b8a52604160045260248afd5b61177b908460085416858c5416903390611ad8565b8883815416828252600a88528382205490803b156117f8576044839286519485938492630aef77bf60e11b845288600485015260248401525af180156117ee57156116cd576001600160401b03819a929a116117da57825297386116cd565b634e487b7160e01b82526041600452602482fd5b83513d8c823e3d90fd5b8280fd5b50838a54168814156116c8565b879160649351926364283d7b60e01b8452600484015260248301526044820152fd5b61183486611bd2565b61183d8c61190b565b805460001901905561190b565b809192939495969750906118a5575b1561186b57908a959493929138611663565b50505085611889576024915190637e27328960e01b82526004820152fd5b604491519063177e802f60e01b82523360048301526024820152fd5b5033891480156118d7575b806118595750838b52600080516020611cf083398151915288523386868d20541614611859565b506118e189611944565b338c52885260ff858c2054166118b0565b604051633250574960e11b815260048101889052602490fd5b6001600160a01b031660009081527f80bb2b638cc20bc4d0a60d66940f3ab4a00c1d7b313497ca82fb0b4ab00793036020526040902090565b6001600160a01b031660009081527f80bb2b638cc20bc4d0a60d66940f3ab4a00c1d7b313497ca82fb0b4ab00793056020526040902090565b919061198a82828561161e565b803b611997575b50505050565b6119d960018060a01b0380921694604051938493630a85bd0160e11b9687865233600487015216602485015260448401526080606484015260848301906114b2565b03906020816000938185885af190829082611a58575b5050611a2757826119fe611ba2565b8051919082611a2057604051633250574960e11b815260048101839052602490fd5b9050602001fd5b6001600160e01b03191603611a40575038808080611991565b60249060405190633250574960e11b82526004820152fd5b909192506020813d602011611aa0575b81611a7560209383611553565b81010312611a9c5751906001600160e01b031982168203611a9957509038806119ef565b80fd5b5080fd5b3d9150611a68565b6000818152600080516020611cd083398151915260205260409020546001600160a01b0316908115610b54575090565b6040516323b872dd60e01b602082019081526001600160a01b039384166024830152938316604482015260648082019590955293845260a0840191906001600160401b0383118584101761042c57611b4a926040521692600080938192519082875af1611b43611ba2565b9084611c2c565b908151918215159283611b7a575b505050611b625750565b60249060405190635274afe760e01b82526004820152fd5b819293509060209181010312611a9c576020015190811591821503611a995750388080611b58565b3d15611bcd573d90611bb382611574565b91611bc16040519384611553565b82523d6000602084013e565b606090565b6000908152600080516020611cf08339815191526020526040902080546001600160a01b0319169055565b60ff600080516020611d108339815191525460401c1615611c1a57565b604051631afcd79f60e31b8152600490fd5b90611c535750805115611c4157805190602001fd5b604051630a12f52160e11b8152600490fd5b81511580611c86575b611c64575090565b604051639996b31560e01b81526001600160a01b039091166004820152602490fd5b50803b15611c5c56fe80bb2b638cc20bc4d0a60d66940f3ab4a00c1d7b313497ca82fb0b4ab0079300ddf252ad1be2c89b69c2b068fc378daa952ba7f163c4a11628f55a4df523b3ef80bb2b638cc20bc4d0a60d66940f3ab4a00c1d7b313497ca82fb0b4ab007930280bb2b638cc20bc4d0a60d66940f3ab4a00c1d7b313497ca82fb0b4ab0079304f0c57e16840df040f15088dc2f81fe391c3923bec73e23a9662efc9c229c6a0080bb2b638cc20bc4d0a60d66940f3ab4a00c1d7b313497ca82fb0b4ab0079301a2646970667358221220bb2bedcc42f3f7bc3232478c62e4b7de3a0304d3f8d4d1095e5fff7a54acb23964736f6c63430008180033",
  "linkReferences": {},
  "deployedLinkReferences": {}
}