{
  "_format": "hh-sol-artifact-1",
  "contractName": "CreatorGroup",
  "sourceName": "contracts/CreatorGroup.sol",
  "abi": [
    {
      "inputs": [
        {
          "internalType": "address",
          "name": "target",
          "type": "address"
        }
      ],
      "name": "AddressEmptyCode",
      "type": "error"
    },
    {
      "inputs": [
        {
          "internalType": "address",
          "name": "account",
          "type": "address"
        }
      ],
      "name": "AddressInsufficientBalance",
      "type": "error"
    },
    {
      "inputs": [],
      "name": "FailedInnerCall",
      "type": "error"
    },
    {
      "inputs": [],
      "name": "InvalidInitialization",
      "type": "error"
    },
    {
      "inputs": [],
      "name": "NotInitializing",
      "type": "error"
    },
    {
      "inputs": [],
      "name": "ReentrancyGuardReentrantCall",
      "type": "error"
    },
    {
      "inputs": [
        {
          "internalType": "address",
          "name": "token",
          "type": "address"
        }
      ],
      "name": "SafeERC20FailedOperation",
      "type": "error"
    },
    {
      "anonymous": false,
      "inputs": [
        {
          "indexed": true,
          "internalType": "address",
          "name": "_director",
          "type": "address"
        }
      ],
      "name": "DirectorSettingExecuted",
      "type": "event"
    },
    {
      "anonymous": false,
      "inputs": [
        {
          "indexed": true,
          "internalType": "uint256",
          "name": "nftId",
          "type": "uint256"
        },
        {
          "indexed": true,
          "internalType": "uint256",
          "name": "initialPrice",
          "type": "uint256"
        },
        {
          "indexed": true,
          "internalType": "uint256",
          "name": "reducingRate",
          "type": "uint256"
        },
        {
          "indexed": false,
          "internalType": "uint256",
          "name": "salePeriod",
          "type": "uint256"
        }
      ],
      "name": "DutchAuctionListed",
      "type": "event"
    },
    {
      "anonymous": false,
      "inputs": [
        {
          "indexed": true,
          "internalType": "uint256",
          "name": "nftId",
          "type": "uint256"
        }
      ],
      "name": "EnglishAuctionEnded",
      "type": "event"
    },
    {
      "anonymous": false,
      "inputs": [
        {
          "indexed": true,
          "internalType": "uint256",
          "name": "nftId",
          "type": "uint256"
        },
        {
          "indexed": true,
          "internalType": "uint256",
          "name": "initialPrice",
          "type": "uint256"
        },
        {
          "indexed": true,
          "internalType": "uint256",
          "name": "salePeriod",
          "type": "uint256"
        }
      ],
      "name": "EnglishAuctionListed",
      "type": "event"
    },
    {
      "anonymous": false,
      "inputs": [
        {
          "indexed": false,
          "internalType": "uint64",
          "name": "version",
          "type": "uint64"
        }
      ],
      "name": "Initialized",
      "type": "event"
    },
    {
      "anonymous": false,
      "inputs": [
        {
          "indexed": true,
          "internalType": "uint256",
          "name": "id",
          "type": "uint256"
        },
        {
          "indexed": true,
          "internalType": "uint256",
          "name": "price",
          "type": "uint256"
        }
      ],
      "name": "LoyaltyFeeReceived",
      "type": "event"
    },
    {
      "anonymous": false,
      "inputs": [
        {
          "indexed": true,
          "internalType": "uint256",
          "name": "nftId",
          "type": "uint256"
        }
      ],
      "name": "NFTBurned",
      "type": "event"
    },
    {
      "anonymous": false,
      "inputs": [
        {
          "indexed": true,
          "internalType": "address",
          "name": "nftAddress",
          "type": "address"
        },
        {
          "indexed": true,
          "internalType": "uint256",
          "name": "nftId",
          "type": "uint256"
        }
      ],
      "name": "NFTMinted",
      "type": "event"
    },
    {
      "anonymous": false,
      "inputs": [
        {
          "indexed": true,
          "internalType": "uint256",
          "name": "nftId",
          "type": "uint256"
        },
        {
          "indexed": true,
          "internalType": "uint256",
          "name": "initialPrice",
          "type": "uint256"
        }
      ],
      "name": "OfferingSaleListed",
      "type": "event"
    },
    {
      "anonymous": false,
      "inputs": [
        {
          "indexed": true,
          "internalType": "uint256",
          "name": "index",
          "type": "uint256"
        }
      ],
      "name": "OfferingSaleTransactionExecuted",
      "type": "event"
    },
    {
      "anonymous": false,
      "inputs": [
        {
          "indexed": true,
          "internalType": "address",
          "name": "_tokenContractAddress",
          "type": "address"
        },
        {
          "indexed": true,
          "internalType": "uint256",
          "name": "tokenId",
          "type": "uint256"
        },
        {
          "indexed": true,
          "internalType": "address",
          "name": "_buyer",
          "type": "address"
        },
        {
          "indexed": false,
          "internalType": "uint256",
          "name": "_price",
          "type": "uint256"
        }
      ],
      "name": "OfferingSaleTransactionProposed",
      "type": "event"
    },
    {
      "anonymous": false,
      "inputs": [
        {
          "indexed": false,
          "internalType": "uint256",
          "name": "value",
          "type": "uint256"
        }
      ],
      "name": "TeamScoreSet",
      "type": "event"
    },
    {
      "anonymous": false,
      "inputs": [
        {
          "indexed": true,
          "internalType": "address",
          "name": "from",
          "type": "address"
        },
        {
          "indexed": true,
          "internalType": "uint256",
          "name": "balanceToWithdraw",
          "type": "uint256"
        }
      ],
      "name": "WithdrawHappened",
      "type": "event"
    },
    {
      "anonymous": false,
      "inputs": [],
      "name": "WithdrawalFromMarketplace",
      "type": "event"
    },
    {
      "inputs": [
        {
          "internalType": "uint256",
          "name": "",
          "type": "uint256"
        },
        {
          "internalType": "uint256",
          "name": "",
          "type": "uint256"
        }
      ],
      "name": "Recording",
      "outputs": [
        {
          "internalType": "address",
          "name": "_member",
          "type": "address"
        },
        {
          "internalType": "uint256",
          "name": "_percent",
          "type": "uint256"
        },
        {
          "internalType": "uint256",
          "name": "_sum",
          "type": "uint256"
        }
      ],
      "stateMutability": "view",
      "type": "function"
    },
    {
      "inputs": [],
      "name": "USDC_token",
      "outputs": [
        {
          "internalType": "contract IERC20",
          "name": "",
          "type": "address"
        }
      ],
      "stateMutability": "view",
      "type": "function"
    },
    {
      "inputs": [
        {
          "internalType": "address",
          "name": "_newMember",
          "type": "address"
        }
      ],
      "name": "addMember",
      "outputs": [],
      "stateMutability": "nonpayable",
      "type": "function"
    },
    {
      "inputs": [
        {
          "internalType": "uint256",
          "name": "_nftId",
          "type": "uint256"
        },
        {
          "internalType": "uint256",
          "name": "_price",
          "type": "uint256"
        }
      ],
      "name": "alarmLoyaltyFeeReceived",
      "outputs": [],
      "stateMutability": "nonpayable",
      "type": "function"
    },
    {
      "inputs": [
        {
          "internalType": "address",
          "name": "_nftContractAddress",
          "type": "address"
        },
        {
          "internalType": "uint256",
          "name": "_nftId",
          "type": "uint256"
        },
        {
          "internalType": "uint256",
          "name": "_price",
          "type": "uint256"
        }
      ],
      "name": "alarmSoldOut",
      "outputs": [],
      "stateMutability": "nonpayable",
      "type": "function"
    },
    {
      "inputs": [
        {
          "internalType": "address",
          "name": "",
          "type": "address"
        }
      ],
      "name": "balance",
      "outputs": [
        {
          "internalType": "uint256",
          "name": "",
          "type": "uint256"
        }
      ],
      "stateMutability": "view",
      "type": "function"
    },
    {
      "inputs": [],
      "name": "burnFee",
      "outputs": [
        {
          "internalType": "uint256",
          "name": "",
          "type": "uint256"
        }
      ],
      "stateMutability": "view",
      "type": "function"
    },
    {
      "inputs": [
        {
          "internalType": "uint256",
          "name": "",
          "type": "uint256"
        }
      ],
      "name": "burnedState",
      "outputs": [
        {
          "internalType": "bool",
          "name": "",
          "type": "bool"
        }
      ],
      "stateMutability": "view",
      "type": "function"
    },
    {
      "inputs": [
        {
          "internalType": "uint256",
          "name": "_id",
          "type": "uint256"
        }
      ],
      "name": "cancelListing",
      "outputs": [],
      "stateMutability": "nonpayable",
      "type": "function"
    },
    {
      "inputs": [],
      "name": "collectionAddress",
      "outputs": [
        {
          "internalType": "address",
          "name": "",
          "type": "address"
        }
      ],
      "stateMutability": "view",
      "type": "function"
    },
    {
      "inputs": [],
      "name": "currentDistributeNumber",
      "outputs": [
        {
          "internalType": "uint256",
          "name": "",
          "type": "uint256"
        }
      ],
      "stateMutability": "view",
      "type": "function"
    },
    {
      "inputs": [],
      "name": "director",
      "outputs": [
        {
          "internalType": "address",
          "name": "",
          "type": "address"
        }
      ],
      "stateMutability": "view",
      "type": "function"
    },
    {
      "inputs": [
        {
          "internalType": "uint256",
          "name": "_id",
          "type": "uint256"
        }
      ],
      "name": "endEnglishAuction",
      "outputs": [],
      "stateMutability": "nonpayable",
      "type": "function"
    },
    {
      "inputs": [
        {
          "internalType": "uint256",
          "name": "_id",
          "type": "uint256"
        }
      ],
      "name": "executeBurnTransaction",
      "outputs": [],
      "stateMutability": "nonpayable",
      "type": "function"
    },
    {
      "inputs": [
        {
          "internalType": "uint256",
          "name": "_transactionId",
          "type": "uint256"
        }
      ],
      "name": "executeOfferingSaleTransaction",
      "outputs": [],
      "stateMutability": "nonpayable",
      "type": "function"
    },
    {
      "inputs": [],
      "name": "factory",
      "outputs": [
        {
          "internalType": "address",
          "name": "",
          "type": "address"
        }
      ],
      "stateMutability": "view",
      "type": "function"
    },
    {
      "inputs": [],
      "name": "getAllData",
      "outputs": [
        {
          "components": [
            {
              "internalType": "address",
              "name": "_director",
              "type": "address"
            },
            {
              "internalType": "address[]",
              "name": "_members",
              "type": "address[]"
            },
            {
              "internalType": "uint256",
              "name": "_totalNumberMinted",
              "type": "uint256"
            },
            {
              "internalType": "uint256",
              "name": "_totalNumberSold",
              "type": "uint256"
            },
            {
              "internalType": "uint256",
              "name": "_totalEarning",
              "type": "uint256"
            }
          ],
          "internalType": "struct CreatorGroup.ReturnData",
          "name": "",
          "type": "tuple"
        }
      ],
      "stateMutability": "view",
      "type": "function"
    },
    {
      "inputs": [
        {
          "internalType": "address",
          "name": "",
          "type": "address"
        },
        {
          "internalType": "uint256",
          "name": "",
          "type": "uint256"
        }
      ],
      "name": "getNFTId",
      "outputs": [
        {
          "internalType": "uint256",
          "name": "",
          "type": "uint256"
        }
      ],
      "stateMutability": "view",
      "type": "function"
    },
    {
      "inputs": [
        {
          "internalType": "uint256",
          "name": "index",
          "type": "uint256"
        }
      ],
      "name": "getNftOfId",
      "outputs": [
        {
          "internalType": "uint256",
          "name": "",
          "type": "uint256"
        }
      ],
      "stateMutability": "view",
      "type": "function"
    },
    {
      "inputs": [],
      "name": "getOfferingTransactionNumber",
      "outputs": [
        {
          "internalType": "uint256",
          "name": "",
          "type": "uint256"
        }
      ],
      "stateMutability": "view",
      "type": "function"
    },
    {
      "inputs": [
        {
          "internalType": "address",
          "name": "_member",
          "type": "address"
        },
        {
          "internalType": "uint256",
          "name": "id",
          "type": "uint256"
        }
      ],
      "name": "getRevenueDistribution",
      "outputs": [
        {
          "internalType": "uint256",
          "name": "",
          "type": "uint256"
        }
      ],
      "stateMutability": "view",
      "type": "function"
    },
    {
      "inputs": [
        {
          "internalType": "uint256",
          "name": "index",
          "type": "uint256"
        }
      ],
      "name": "getSoldInfor",
      "outputs": [
        {
          "components": [
            {
              "internalType": "uint256",
              "name": "id",
              "type": "uint256"
            },
            {
              "internalType": "uint256",
              "name": "price",
              "type": "uint256"
            },
            {
              "internalType": "bool",
              "name": "distributeState",
              "type": "bool"
            }
          ],
          "internalType": "struct ICreatorGroup.SoldInfor",
          "name": "",
          "type": "tuple"
        }
      ],
      "stateMutability": "view",
      "type": "function"
    },
    {
      "inputs": [],
      "name": "getSoldNumber",
      "outputs": [
        {
          "internalType": "uint256",
          "name": "",
          "type": "uint256"
        }
      ],
      "stateMutability": "view",
      "type": "function"
    },
    {
      "inputs": [
        {
          "internalType": "address[]",
          "name": "_members",
          "type": "address[]"
        },
        {
          "internalType": "address",
          "name": "_collectionAddress",
          "type": "address"
        },
        {
          "internalType": "address",
          "name": "_marketplace",
          "type": "address"
        },
        {
          "internalType": "uint256",
          "name": "_mintFee",
          "type": "uint256"
        },
        {
          "internalType": "uint256",
          "name": "_burnFee",
          "type": "uint256"
        },
        {
          "internalType": "address",
          "name": "_USDC",
          "type": "address"
        }
      ],
      "name": "initialize",
      "outputs": [],
      "stateMutability": "nonpayable",
      "type": "function"
    },
    {
      "inputs": [
        {
          "internalType": "address",
          "name": "",
          "type": "address"
        }
      ],
      "name": "isOwner",
      "outputs": [
        {
          "internalType": "bool",
          "name": "",
          "type": "bool"
        }
      ],
      "stateMutability": "view",
      "type": "function"
    },
    {
      "inputs": [],
      "name": "leaveGroup",
      "outputs": [],
      "stateMutability": "nonpayable",
      "type": "function"
    },
    {
      "inputs": [
        {
          "internalType": "uint256",
          "name": "_id",
          "type": "uint256"
        },
        {
          "internalType": "uint256",
          "name": "_initialPrice",
          "type": "uint256"
        },
        {
          "internalType": "uint256",
          "name": "_reducingRate",
          "type": "uint256"
        },
        {
          "internalType": "uint256",
          "name": "_salePeriod",
          "type": "uint256"
        }
      ],
      "name": "listToDutchAuction",
      "outputs": [],
      "stateMutability": "nonpayable",
      "type": "function"
    },
    {
      "inputs": [
        {
          "internalType": "uint256",
          "name": "_id",
          "type": "uint256"
        },
        {
          "internalType": "uint256",
          "name": "_initialPrice",
          "type": "uint256"
        },
        {
          "internalType": "uint256",
          "name": "_salePeriod",
          "type": "uint256"
        }
      ],
      "name": "listToEnglishAuction",
      "outputs": [],
      "stateMutability": "nonpayable",
      "type": "function"
    },
    {
      "inputs": [
        {
          "internalType": "uint256",
          "name": "_id",
          "type": "uint256"
        },
        {
          "internalType": "uint256",
          "name": "_initialPrice",
          "type": "uint256"
        }
      ],
      "name": "listToOfferingSale",
      "outputs": [],
      "stateMutability": "nonpayable",
      "type": "function"
    },
    {
      "inputs": [
        {
          "internalType": "uint256",
          "name": "",
          "type": "uint256"
        }
      ],
      "name": "listedState",
      "outputs": [
        {
          "internalType": "bool",
          "name": "",
          "type": "bool"
        }
      ],
      "stateMutability": "view",
      "type": "function"
    },
    {
      "inputs": [],
      "name": "marketplace",
      "outputs": [
        {
          "internalType": "address",
          "name": "",
          "type": "address"
        }
      ],
      "stateMutability": "view",
      "type": "function"
    },
    {
      "inputs": [
        {
          "internalType": "uint256",
          "name": "",
          "type": "uint256"
        }
      ],
      "name": "members",
      "outputs": [
        {
          "internalType": "address",
          "name": "",
          "type": "address"
        }
      ],
      "stateMutability": "view",
      "type": "function"
    },
    {
      "inputs": [
        {
          "internalType": "string",
          "name": "_nftURI",
          "type": "string"
        }
      ],
      "name": "mint",
      "outputs": [],
      "stateMutability": "nonpayable",
      "type": "function"
    },
    {
      "inputs": [],
      "name": "mintFee",
      "outputs": [
        {
          "internalType": "uint256",
          "name": "",
          "type": "uint256"
        }
      ],
      "stateMutability": "view",
      "type": "function"
    },
    {
      "inputs": [
        {
          "internalType": "uint256",
          "name": "",
          "type": "uint256"
        }
      ],
      "name": "nftIdArr",
      "outputs": [
        {
          "internalType": "uint256",
          "name": "",
          "type": "uint256"
        }
      ],
      "stateMutability": "view",
      "type": "function"
    },
    {
      "inputs": [],
      "name": "numberOfBurnedNFT",
      "outputs": [
        {
          "internalType": "uint256",
          "name": "",
          "type": "uint256"
        }
      ],
      "stateMutability": "view",
      "type": "function"
    },
    {
      "inputs": [],
      "name": "numberOfMembers",
      "outputs": [
        {
          "internalType": "uint256",
          "name": "",
          "type": "uint256"
        }
      ],
      "stateMutability": "view",
      "type": "function"
    },
    {
      "inputs": [],
      "name": "numberOfNFT",
      "outputs": [
        {
          "internalType": "uint256",
          "name": "",
          "type": "uint256"
        }
      ],
      "stateMutability": "view",
      "type": "function"
    },
    {
      "inputs": [
        {
          "internalType": "address",
          "name": "",
          "type": "address"
        },
        {
          "internalType": "uint256",
          "name": "",
          "type": "uint256"
        }
      ],
      "name": "revenueDistribution",
      "outputs": [
        {
          "internalType": "uint256",
          "name": "",
          "type": "uint256"
        }
      ],
      "stateMutability": "view",
      "type": "function"
    },
    {
      "inputs": [
        {
          "internalType": "address",
          "name": "_candidate",
          "type": "address"
        }
      ],
      "name": "setNewDirector",
      "outputs": [],
      "stateMutability": "nonpayable",
      "type": "function"
    },
    {
      "inputs": [
        {
          "internalType": "uint256",
          "name": "_score",
          "type": "uint256"
        }
      ],
      "name": "setTeamScore",
      "outputs": [],
      "stateMutability": "nonpayable",
      "type": "function"
    },
    {
      "inputs": [
        {
          "internalType": "uint256",
          "name": "",
          "type": "uint256"
        }
      ],
      "name": "soldInformation",
      "outputs": [
        {
          "internalType": "uint256",
          "name": "id",
          "type": "uint256"
        },
        {
          "internalType": "uint256",
          "name": "price",
          "type": "uint256"
        },
        {
          "internalType": "bool",
          "name": "distributeState",
          "type": "bool"
        }
      ],
      "stateMutability": "view",
      "type": "function"
    },
    {
      "inputs": [
        {
          "internalType": "uint256",
          "name": "",
          "type": "uint256"
        }
      ],
      "name": "soldOutState",
      "outputs": [
        {
          "internalType": "bool",
          "name": "",
          "type": "bool"
        }
      ],
      "stateMutability": "view",
      "type": "function"
    },
    {
      "inputs": [
        {
          "internalType": "uint256",
          "name": "_marketId",
          "type": "uint256"
        },
        {
          "internalType": "uint256",
          "name": "_tokenId",
          "type": "uint256"
        },
        {
          "internalType": "address",
          "name": "_buyer",
          "type": "address"
        },
        {
          "internalType": "uint256",
          "name": "_price",
          "type": "uint256"
        }
      ],
      "name": "submitOfferingSaleTransaction",
      "outputs": [],
      "stateMutability": "nonpayable",
      "type": "function"
    },
    {
      "inputs": [],
      "name": "teamScore",
      "outputs": [
        {
          "internalType": "uint256",
          "name": "",
          "type": "uint256"
        }
      ],
      "stateMutability": "view",
      "type": "function"
    },
    {
      "inputs": [],
      "name": "totalEarning",
      "outputs": [
        {
          "internalType": "uint256",
          "name": "",
          "type": "uint256"
        }
      ],
      "stateMutability": "view",
      "type": "function"
    },
    {
      "inputs": [
        {
          "internalType": "uint256",
          "name": "",
          "type": "uint256"
        }
      ],
      "name": "transactions_offering",
      "outputs": [
        {
          "internalType": "uint256",
          "name": "marketId",
          "type": "uint256"
        },
        {
          "internalType": "uint256",
          "name": "id",
          "type": "uint256"
        },
        {
          "internalType": "uint256",
          "name": "price",
          "type": "uint256"
        },
        {
          "internalType": "address",
          "name": "buyer",
          "type": "address"
        },
        {
          "internalType": "bool",
          "name": "endState",
          "type": "bool"
        }
      ],
      "stateMutability": "view",
      "type": "function"
    },
    {
      "inputs": [],
      "name": "withdraw",
      "outputs": [],
      "stateMutability": "nonpayable",
      "type": "function"
    },
    {
      "inputs": [],
      "name": "withdrawFromMarketplace",
      "outputs": [],
      "stateMutability": "nonpayable",
      "type": "function"
    }
  ],
  "bytecode": "0x6080806040523461001b57600160005561305090816100218239f35b600080fdfe608060408181526004918236101561001657600080fd5b600092833560e01c91826313966db5146125fa5750816315deef7e146125325781632535ef68146120d25781632d10fa281461240b5781632f54bf6e146123cd578163305a67a8146122985781633748a5c2146122795781633ccfd60b146121645781633dd45f65146120fa578163403c94cb1461213b578163455b146d146120fa5781634591a22a146120d25781634741a8fc14611f385781634eff031b14611f0b57816351b19d5714611e3c5781635af82abf14611e135781635daf08ca14611dd25781635e0466ae14611cee5781636840af4914611b2a5781636aa0037114611b0157816376fd44fe14611ad45781637d94bf44146119795781638aa9f360146119195781638ab634a1146118fa578163a30e3fa9146118db578163aa65d23914611861578163abc8c7af14611838578163af4dbd2914611709578163afe7e7b31461155c578163b525680e1461153d578163b5a275aa146114ed578163b6ee6c94146112db578163baf669f714611272578163c1e8eb1e14611253578163c33077d514611212578163c45a0155146111e9578163ca6d56dc146110f7578163cb1fb49014610fba57838263d08715c814610ea157508163d1be247d14610e74578163d85d3d2714610bf7578163de6d513314610858578163e36e9c0814610650578163e3d670d714610618578163ed78b5f8146105f9578163eff4fda3146102a4578163f74279b014610285578163fce589d814610263575063fd6a1e781461024257600080fd5b3461025f578160031936011261025f576020906011549051908152f35b5080fd5b90503461028157826003193601126102815760209250549051908152f35b8280fd5b50503461025f578160031936011261025f57602090600f549051908152f35b905034610281576060366003190112610281576102bf61262c565b9060249260018060a01b039060086102dc8360085416331461297b565b6002946102f28480600254169216918214612795565b87526020946017865282882060243589528652828820549660105460001981019081116105e657881115806105de575b946103308a939294966127d2565b88835260138852600195869461034f8660ff8988205416151514612814565b8a855260199260198b528786209283546103688161277e565b946103758b519687612742565b81865288528c882088908e8088015b8484106105935750505050509087929187935b610485575b5050505088858c905b610450575b50505050505050848652601484528086209360ff199483868254161790558151956103d487612727565b86528501906044358252850194868652600c54600160401b81101561043d5780846104029201600c55612689565b94909461042b57509160ff93916002935183555190820155019251151591835416911617905580f35b634e487b7160e01b8852879052602487fd5b634e487b7160e01b885260418552602488fd5b878d8d855184101561047d5783899383898d98610471958d975252206126a8565b500155018990866103a5565b5050506103aa565b91939495969092978c8f918d8c9189518d1015610583575090878c95949392886104b3818a5416988d612a4e565b515116925196879384926345909a6f60e01b84528301525afa928315610577578f8f928a8f9998979695948f938f95849861051e575b509461050d9694848d999794610505948b968a985252206126a8565b500155612a62565b980193979695949392919088610397565b9b50509495505050505085813d8311610570575b61053c8183612742565b8101031261056b5761050d8f8f928f91938e6105058f8f90839c988f859a519a509450949196925094966104e9565b600080fd5b503d610532565b508a51903d90823e3d90fd5b9b5050505081979695945061039c565b60039294969798999a9b508d809d94969d51906105af82612727565b89875416825285870154848301528d87015490820152815201920192018f98979695949391928e8d9b94610384565b506001610322565b634e487b7160e01b8a526011875260248afd5b50503461025f578160031936011261025f57602090600e549051908152f35b50503461025f57602036600319011261025f5760209181906001600160a01b0361064061262c565b1681526009845220549051908152f35b83833461025f57602036600319011261025f57600b548335916001600160a01b039161067f908316331461284d565b6018946018546000198101908111610845578411158061083d575b15610802576106a8846126c4565b5060039081018054600160a01b60ff60a01b1991821681179092556106cc876126c4565b50918551936106da856126e3565b8354855260019360036001820154916020880192835260028101548a89015201549b60ff606088019d8e8c8216905260a01c1615156080880152858c905b6107b2575b5050505050505083869796959651169360085416905190803b156107ae5785928360449286519788958694631171d65f60e01b865285015260248401525af19081156107a55750610791575b50807f0f95ccd2c58275d301fd84ed54e87d9c55c99db9e296b9edd4261a93862594f491a280f35b61079a90612714565b61025f578183610769565b513d84823e3d90fd5b8580fd5b81548110156107fd57908682816107cd8199989796956126c4565b5001548451146107e4575b01909192939495610718565b846107ee826126c4565b500186888254161790556107d8565b61071d565b6020606492519162461bcd60e51b83528201526016602482015275125b9d985b1a59081d1c985b9cd858dd1a5bdb881a5960521b6044820152fd5b50600161069a565b634e487b7160e01b865260118252602486fd5b919050346102815760c03660031901126102815781356001600160401b0391828211610bf35736602383011215610bf357818401359260249461089a8561277e565b936108a784519586612742565b858552602095878787019160051b83010191368311610bef578801905b828210610bd057506001600160a01b03928835848116935090915082900361056b576108ee612642565b9760a4359380851680950361056b577ff0c57e16840df040f15088dc2f81fe391c3923bec73e23a9662efc9c229c6a00998a549860ff8a8a1c1615978a16998a1580610bc9575b6001809c149081610bbf575b159081610bb6575b50610ba65767ffffffffffffffff1981168b178d558a919089610b87575b508b8e8b81855b610b0b575b50505050505060065490816005558515610ac957600280546001600160a01b0319908116909717905582168015610a875785600854161760085560643560035560843584553385600754161760075515610a7357600660005288600020541683600b541617600b558960105589600d556050600e558315610a3a5750508454161783556109fe578480f35b835460ff60401b191690935591519182527fc7f505b2f371ae2175ee4913f4499e1f2633a7b5936321eed1cdaeb6115181d291a1388080808480f35b855162461bcd60e51b815291820188905260149082015273496e76616c69642055534443204164647265737360601b6044820152606490fd5b50634e487b7160e01b600090815260328352fd5b885162461bcd60e51b81528086018c9052601b818601527f496e76616c6964204d61726b6574706c616365204164647265737300000000006044820152606490fd5b885162461bcd60e51b81528086018c9052601a818601527f496e76616c696420436f6c6c656374696f6e20416464726573730000000000006044820152606490fd5b8451831015610b8257859388610b218588612a4e565b51168252600a9081815260ff848420541615610b48575b50505050018c908f8c908561096e565b610b5d8a610b56878a612a4e565b5116612a0b565b89610b688689612a4e565b5116835252208260ff198254161790558f8c908f80610b38565b610973565b68ffffffffffffffffff191668010000000000000001178d5538610967565b895163f92ee8a960e01b81528690fd5b90501538610949565b303b159150610941565b5088610935565b81356001600160a01b038116810361056b5781529087019087016108c4565b8980fd5b8480fd5b9050346102815760209182600319360112610e70578135926001600160401b038411610bf35736602385011215610bf357838301359085602495610c3a84612763565b93610c4786519586612742565b8085523660248284010111610281578060248593018387013784010152600b546001600160a01b0390610c7d908216331461284d565b6002938160025416966003805480610e5b575b50848351809763d85d3d2760e01b8252828b8301528c815191826024850152815b838110610e3b5750508183916044809484010152601f801991011681010301818d8d5af1958615610e31578a96610e02575b506010956010548b5260128652838b2055601054898b5260178652838b20818c5260128752848c20548c528652838b2055895b600654811015610dc95784610d2a82612658565b905490841b1c1690845191610d3e83612727565b82528682018c81528583018d815289548e5260198952868e20805490949290600160401b811015610db657610d7a9060019687820181556126a8565b939093610da4575183546001600160a01b031916908a16178355518483015551908a015501610d16565b50634e487b7160e01b8f528e8d52868ffd5b50634e487b7160e01b8f5260418d52868ffd5b8a610dfc8b60105480917f4cc0a9c4a99ddc700de1af2c9f916a7cbfdb71f14801ccff94061ad1ef8a80408580a3612956565b60105580f35b9095508481813d8311610e2a575b610e1a8183612742565b8101031261056b57519438610ce3565b503d610e10565b83513d8c823e3d90fd5b818694969295508193500101516044828c01015201918c89928994610cb1565b610e6a908a8660015416612de6565b38610c90565b8380fd5b905034610281576020366003190112610281578160209360ff923581526013855220541690519015158152f35b80918434610fb65782600319360112610fb657600b546001600160a01b0390610ecd908216331461284d565b6008541691823b15610fb157815163ecc273d160e01b81529284918491829084905af19081156107a55750610f9a575b5050600d545b600c54811015610f6c57610f1681612689565b5060ff6002809201541615610f45575b610f2f82612689565b5001805460ff1916600190811790915501610f03565b610f67610f5183612689565b50546001610f5e85612689565b50015490612a6f565b610f26565b50600c54600d557f81414598fa980eb94e6fa5ffadc5e0605a2402b04fce050b36c71a9135a53c708180a180f35b610fa390612714565b610fae578082610efd565b80fd5b505050fd5b5050fd5b905034610281578260031936011261028157338352600a602052600191610feb600160ff83872054161515146128c0565b338452600a6020528320805460ff19169055600654839290835b8181106110c65750506005546000199391508381019081116110b3576110479161103161106b92612658565b90546001600160a01b0394919290918591612658565b92909360031b1c169060018060a01b038084549260031b9316831b921b1916179055565b6005548381019081116110b35761108190612658565b909182549160031b1b191690556005549081156110a057500160055580f35b634e487b7160e01b845260119052602483fd5b634e487b7160e01b855260118352602485fd5b6110cf81612658565b905460039190911b1c6001600160a01b031633146110ef575b8201611005565b9350836110e8565b9050346102815760203660031901126102815761111261262c565b600b546001600160a01b039061112b908216331461284d565b811691828552600a60205260ff84862054166111ab578215611176575061115190612a0b565b8252600a6020528120600160ff19825416179055611170600554612956565b60055580f35b606490602085519162461bcd60e51b8352820152600f60248201526e496e76616c6964204164647265737360881b6044820152fd5b606490602085519162461bcd60e51b83528201526018602482015277416c7265616479206578697374696e67206d656d6265722160401b6044820152fd5b50503461025f578160031936011261025f5760075490516001600160a01b039091168152602090f35b50503461025f578060031936011261025f5760209181906001600160a01b0361123961262c565b168152601784528181206024358252845220549051908152f35b50503461025f578160031936011261025f576020906018549051908152f35b905034610281576020366003190112610281573591601854831015610fae575060ff61129f60a0936126c4565b5091825492600181015491600360028301549201549281519586526020860152840152600180851b0381166060840152831c1615156080820152f35b91905034610281576080366003190112610281578135602435916044359360643560018060a01b0361131281600b5416331461284d565b60105460001981019081116114da57851115806114d2575b611333906127d2565b8488526020926013845261134d60ff868b20541615612918565b61135b610e108404896129f8565b87111561148f5790889186835260138552858320600160ff19825416179055816002541682600854166012875287852054823b156107ae576113b4928692838b5180968195829463095ea7b360e01b84528a84016128a5565b03925af1801561148557908491611471575b505081600854169160025416878452601286528684205492803b15610bf35784928360a4928a51968795869463039e094f60e51b865285015260248401528c60448401528d60648401528860848401525af180156114675761144f575b50507ffea3c558387018045937e425507802113776a1e63459aa2f85de6e0da024e5319251908152a480f35b61145890612714565b611463578638611423565b8680fd5b85513d84823e3d90fd5b61147a90612714565b6102815782386113c6565b87513d86823e3d90fd5b845162461bcd60e51b8152908101849052601a60248201527f496e76616c696420447574636820696e666f726d6174696f6e210000000000006044820152606490fd5b50600161132a565b634e487b7160e01b895260118452602489fd5b905034610281576020366003190112610281573591600c54831015610fae5750611518606092612689565b509081549160ff60026001830154920154169082519384526020840152151590820152f35b50503461025f578160031936011261025f57602090600d549051908152f35b83833461025f5761156c36612616565b600b5490926001600160a01b0391611587908316331461284d565b60105460001981019081116116f6579086869392851115806116ee575b6115ad906127d2565b84845260136020526115c560ff838620541615612918565b8484526013602052818420600160ff1982541617905582600254168360085416601260205283862054823b156114635761161692879283875180968195829463095ea7b360e01b84528a84016128a5565b03925af180156116e4579085916116d0575b5050826008541692600254169285855260126020528285205490803b156107ae5783516364f2a48160e01b81526001600160a01b03909516928501928352602083019190915260408201879052849184919082908490829060600103925af19081156107a557506116bc575b50807f210619970e2f9603d9640664d9b35a4910e447e74ba39ad394c2333fa151a6e591a380f35b6116c590612714565b610281578284611694565b6116d990612714565b610e70578388611628565b83513d87823e3d90fd5b5060016115a4565b634e487b7160e01b865260118752602486fd5b9050346102815760203660031901126102815780359160018060a01b039161173683600b5416331461284d565b60105460001981019081116108455784111580611830575b611757906127d2565b8385526013602052600160ff83872054161515036118005790829185936008541692600254169285855260126020528285205490803b156107ae576117b3948680948651978895869485936307676db960e21b855284016128a5565b03925af19081156107a557506117ec575b50807f23c068b43a572992106cdd673581a06e52c8f347327bd1395ca8c36522aa58d991a280f35b6117f590612714565b61025f5781386117c4565b6020606492519162461bcd60e51b8352820152600b60248201526a4e6f74206c69737465642160a81b6044820152fd5b50600161174e565b50503461025f578160031936011261025f5760085490516001600160a01b039091168152602090f35b905034610281576020366003190112610281576118989060609383805161188781612727565b828152826020820152015235612689565b509080516118a581612727565b8254928382528260ff60026001840154936020860194855201541692019115158252825193845251602084015251151590820152f35b50503461025f578160031936011261025f576020906005549051908152f35b50503461025f578160031936011261025f57602090600c549051908152f35b50503461025f5761192936612616565b90835260196020528183208054821015610e705790611947916126a8565b508054600182015460029092015492516001600160a01b03909116815260208101919091526040810191909152606090f35b919050346102815760803660031901126102815760243590611999612642565b600854606435916001600160a01b03916119b6908316331461297b565b816002541687526017602052838720858852602052838720549586885260136020526119ec600160ff878b205416151514612814565b8451906119f8826126e3565b8035825260208201978852858201858152846060840194169889855260808401938b8552601854600160401b811015611ac157806001611a3b92016018556126c4565b949094611aaf57507f1d4058e7d1cd2bc48c906569ef41af93fa75dff121e499f9bb20fdbd8242d111979593879593602098936003935183555160018301555160028201550192511682549160ff60a01b9051151560a01b169160018060a81b03191617179055600254169351908152a480f35b634e487b7160e01b8d528c905260248cfd5b634e487b7160e01b8d526041855260248dfd5b905034610281576020366003190112610281578160209360ff923581526014855220541690519015158152f35b50503461025f578160031936011261025f5760025490516001600160a01b039091168152602090f35b9190503461028157602080600319360112610e7057600b548335936001600160a01b0391611b5b908316331461284d565b6010546000198101908111611cdb5785111580611cd3575b611b7c906127d2565b84865260138352611b9360ff858820541615612918565b81600254169085875260128452848720549281548381611cbe575b5050508451630852cd8d60e31b8152838282015284816024818b875af1908115611cb4579084918991611c83575b5003611c4a5750906015929186526017825283862090865281528483812055838552601281528483812055528220600160ff19825416179055611c20601154612956565b6011557f3c176691ca154a2f6fe978a2a633a33ee77dbe2902e67a75400720845a4b2ce18280a280f35b845162461bcd60e51b81529081018490526013602482015272139bdd081b585d18da08189d5c9b9959081251606a1b6044820152606490fd5b809250868092503d8311611cad575b611c9c8183612742565b8101031261056b5783905138611bdc565b503d611c92565b86513d8a823e3d90fd5b611ccb9260015416612de6565b388083611bae565b506001611b73565b634e487b7160e01b875260118252602487fd5b9190503461028157602036600319011261028157600754823592906001600160a01b03163303611d845760648311611d525750816020917f12e0d8ac74ccb09896fbe3d4a7a5d9499368cb7f357c8f79a6e5ddde672aa91993600e5551908152a180f35b6020606492519162461bcd60e51b8352820152600d60248201526c496e76616c69642073636f726560981b6044820152fd5b6020608492519162461bcd60e51b83528201526024808201527f4f6e6c7920666163746f72792063616e2063616c6c20746869732066756e637460448201526334b7b71760e11b6064820152fd5b905034610281576020366003190112610281573591600654831015610fae5750611dfd602092612658565b905491519160018060a01b039160031b1c168152f35b50503461025f578160031936011261025f57600b5490516001600160a01b039091168152602090f35b90503461028157602036600319011261028157611e5761262c565b600b5491906001600160a01b0390611e72338386161461284d565b1692838552600a602052600160ff8287205416151503611ec85750506001600160a01b031981168217600b558216177fef1fcc0b058c061cb191528ff8896e4887077794974039bc10f0cc508c04b6f98280a280f35b906020606492519162461bcd60e51b8352820152601d60248201527f4f6e6c79206d656d626572732063616e206265206469726563746f72210000006044820152fd5b905034610281576020366003190112610281578160209360ff923581526015855220541690519015158152f35b905034610281576060366003190112610281578035602435916044359360018060a01b0391611f6c83600b5416331461284d565b60105460001981019081116120bf579087939291851115806120b7575b611f92906127d2565b8484526013602052611faa60ff838620541615612918565b8484526013602052818420600160ff1982541617905582600254168360085416601260205283862054823b1561146357611ffb92879283875180968195829463095ea7b360e01b84528a84016128a5565b03925af180156116e4579085916120a3575b50508260085416926002541685855260126020528285205493803b156107ae5785928360849286519788958694630d98ecf160e01b865285015260248401528a60448401528b60648401525af19081156107a5575061208f575b50807f850939966026f9cc26b998652790a4d7f98748ba61f3363dd2c875880afe702c91a480f35b61209890612714565b610e70578338612067565b6120ac90612714565b610e7057833861200d565b506001611f89565b634e487b7160e01b885260118252602488fd5b9050346102815760203660031901126102815760209282913581526012845220549051908152f35b50503461025f578060031936011261025f5760209181906001600160a01b0361212161262c565b168152601684528181206024358252845220549051908152f35b50503461025f578160031936011261025f5760015490516001600160a01b039091168152602090f35b91905034610281578260031936011261028157338352600a602052612193600160ff83862054161515146128c0565b600283541461226c57600283553383526009602052808320549182156122315750612205903384526009602052838181205560018060a01b036001541690519063a9059cbb60e01b6020830152612200826121f28633602484016128a5565b03601f198101845283612742565b612f15565b337ff38711560c8e47259abbfcfa95c94b87313428c7d5717de52e45c138038174518380a36001815580f35b6020606492519162461bcd60e51b835282015260166024820152754e6f2062616c616e636520746f20776974686472617760501b6044820152fd5b51633ee5aeb560e01b8152fd5b50503461025f578160031936011261025f576020906010549051908152f35b9050346102815760203660031901126102815780359060018060a01b036122c481600b5416331461284d565b60105460001981019081116123ba57831115806123b2575b6122e5906127d2565b8285526013602052600160ff8587205416151503612381578085916008541690600254169084835260126020528583205491813b15610e70578361233d9588519687958694859363596ef70360e11b855284016128a5565b03925af1801561237457612361575b50825260136020528120805460ff1916905580f35b61236d90939193612714565b913861234c565b50505051903d90823e3d90fd5b835162461bcd60e51b8152602081840152600b60248201526a4e6f74204c69737465642160a81b6044820152606490fd5b5060016122dc565b634e487b7160e01b865260118352602486fd5b50503461025f57602036600319011261025f5760209160ff9082906001600160a01b036123f861262c565b168152600a855220541690519015158152f35b828434610fae5780600319360112610fae579080519061242a826126e3565b8282528260806020936060858201528284820152826060820152015260018060a01b039283600b541690601054600c5491600f549385519061246b826126e3565b8152855196878098826006549182815201906006865283862090865b8d82821061251a57505050509061249f910389612742565b808201978852868201938452606082019485526080820195865260a0875198828a528a60c08b01945116838b0152519789015286518092528060e089019701925b82811061250457505050508495505160608501525160808401525160a08301520390f35b83518a16885296810196928101926001016124e0565b83541684528c94509285019260019283019201612487565b9050346102815761254236612616565b929061255960018060a01b03600254163314612795565b338552601760205281852090855260205280842054916010549060001982019182116125e7575060ff6125af92600192851115806125e0575b61259b906127d2565b848752601360205286205416151514612814565b6125b98282612a6f565b7fbd106521b629930f294ba98589c9a4d9db99d551cf93aa7fb793787e6181f3308380a380f35b5082612592565b634e487b7160e01b865260119052602485fd5b84903461025f578160031936011261025f576020906003548152f35b604090600319011261056b576004359060243590565b600435906001600160a01b038216820361056b57565b604435906001600160a01b038216820361056b57565b60065481101561267357600660005260206000200190600090565b634e487b7160e01b600052603260045260246000fd5b600c5481101561267357600c6000526003602060002091020190600090565b8054821015612673576000526003602060002091020190600090565b60185481101561267357601860005260206000209060021b0190600090565b60a081019081106001600160401b038211176126fe57604052565b634e487b7160e01b600052604160045260246000fd5b6001600160401b0381116126fe57604052565b606081019081106001600160401b038211176126fe57604052565b90601f801991011681019081106001600160401b038211176126fe57604052565b6001600160401b0381116126fe57601f01601f191660200190565b6001600160401b0381116126fe5760051b60200190565b1561279c57565b60405162461bcd60e51b815260206004820152600e60248201526d496e76616c696420416c61726d2160901b6044820152606490fd5b156127d957565b60405162461bcd60e51b81526020600482015260136024820152724e465420646f6573206e6f742065786973742160681b6044820152606490fd5b1561281b57565b60405162461bcd60e51b815260206004820152600a602482015269139bdd081b1a5cdd195960b21b6044820152606490fd5b1561285457565b60405162461bcd60e51b8152602060048201526024808201527f4f6e6c79206469726563746f722063616e2063616c6c20746869732066756e636044820152633a34b7b760e11b6064820152608490fd5b6001600160a01b039091168152602081019190915260400190565b156128c757565b60405162461bcd60e51b815260206004820152602360248201527f4f6e6c79206d656d626572732063616e2063616c6c20746869732066756e637460448201526234b7b760e91b6064820152608490fd5b1561291f57565b60405162461bcd60e51b815260206004820152600f60248201526e416c7265616479206c69737465642160881b6044820152606490fd5b60001981146129655760010190565b634e487b7160e01b600052601160045260246000fd5b1561298257565b60405162461bcd60e51b815260206004820152602860248201527f6f6e6c79204d61726b6574706c6163652063616e2043616c6c207468697320666044820152673ab731ba34b7b71760c11b6064820152608490fd5b81156129e2570490565b634e487b7160e01b600052601260045260246000fd5b8181029291811591840414171561296557565b60065490600160401b8210156126fe57612a2e826001612a4c9401600655612658565b90919060018060a01b038084549260031b9316831b921b1916179055565b565b80518210156126735760209160051b010190565b9190820180921161296557565b612a7b82600f54612a62565b600f5560008181526019916020936019855260409384842054928315612da757612ab3846064612aad600e54876129f8565b046129d8565b612abd85826129f8565b8403938411612d9357939283612ad3889561277e565b95612ae086519788612742565b818752612aec8261277e565b92878b8a88888385019b601f19809a018d36903783945b898610612cc757505050505050505050612b1c8161277e565b93612b2989519586612742565b818552612b358261277e565b858b01930136843789885b888b8b868410612c49575050505050505060018060a01b03978860085416958960025416938852601282528888205494873b15612c45579593919092889795938a519b8c9863b3b32b4960e01b8a5260848a0190608060048c01525180915260a48a0193918b905b828210612c265750505050878203600319016024890152518082529082019491885b828110612c0c57505050508492869284926044840152606483015203925af1918215612c02575050612bf95750565b612a4c90612714565b51903d90823e3d90fd5b835187528a99508c98509581019592810192600101612bca565b8351811686528d9c508f9b509486019492860192600190910190612ba8565b8880fd5b60019489825286815289612c7386612c63818787206126a8565b50898060a01b0390541696612a4e565b5193858452601683528320925252612c8f8d8d20918254612a62565b905580612c9c838a612a4e565b52612ca7828b612a4e565b51908b5260098d52612cbd8c8c20918254612a62565b9055018a90612b40565b86612ce887612ce28c612cdc8360019d612a4e565b51612a62565b92612a4e565b5282855283815285612cfc818488206126a8565b509260028094015415600014612d445750505050505050612d2a612d2086856129d8565b612cdc838d612a4e565b612d34828c612a4e565b525b0188908a88888f8f90612b03565b86612d2096612d7a9487612d839a52818152612d708d8d612d67888888206126a8565b500154906129f8565b97835252206126a8565b500154906129d8565b612d8d828c612a4e565b52612d36565b634e487b7160e01b86526011600452602486fd5b855162461bcd60e51b81526004810188905260186024820152774e6f206d656d6265727320746f206469737472696275746560401b6044820152606490fd5b929192604051916020830190612e1d84612e0f63095ea7b360e01b9889865284602484016128a5565b03601f198101865285612742565b83516000926001600160a01b039291858416918591829182855af190612e41612f87565b82612ecb575b5081612ec0575b5015612e5e575b50505050509050565b6040519660208801521660248601528060448601526044855260808501908582106001600160401b03831117612eac5750612ea193946122009160405282612f15565b803880808080612e55565b634e487b7160e01b81526041600452602490fd5b90503b151538612e4e565b80519192508115918215612ee3575b50509038612e47565b612ef69250602080918301019101612efd565b3880612eda565b9081602091031261056b5751801515810361056b5790565b600080612f3e9260018060a01b03169360208151910182865af1612f37612f87565b9083612fb7565b8051908115159182612f6c575b5050612f545750565b60249060405190635274afe760e01b82526004820152fd5b612f7f9250602080918301019101612efd565b153880612f4b565b3d15612fb2573d90612f9882612763565b91612fa66040519384612742565b82523d6000602084013e565b606090565b90612fde5750805115612fcc57805190602001fd5b604051630a12f52160e11b8152600490fd5b81511580613011575b612fef575090565b604051639996b31560e01b81526001600160a01b039091166004820152602490fd5b50803b15612fe756fea264697066735822122013adbe0132ffb9e3268a489d54b28b3cf27ef1c6777db053092f4c97ab4401ed64736f6c63430008180033",
  "linkReferences": {},
  "deployedLinkReferences": {}
}