{
  "_format": "hh-sol-artifact-1",
  "contractName": "Factory",
  "sourceName": "contracts/Factory.sol",
  "abi": [
    {
      "inputs": [
        {
          "internalType": "address",
          "name": "_implementGroup",
          "type": "address"
        },
        {
          "internalType": "address",
          "name": "_implementContent",
          "type": "address"
        },
        {
          "internalType": "address",
          "name": "_marketplace",
          "type": "address"
        },
        {
          "internalType": "address",
          "name": "_developmentTeam",
          "type": "address"
        },
        {
          "internalType": "uint256",
          "name": "_mintFee",
          "type": "uint256"
        },
        {
          "internalType": "uint256",
          "name": "_burnFee",
          "type": "uint256"
        },
        {
          "internalType": "address",
          "name": "_USDC",
          "type": "address"
        }
      ],
      "stateMutability": "nonpayable",
      "type": "constructor"
    },
    {
      "inputs": [
        {
          "internalType": "address",
          "name": "target",
          "type": "address"
        }
      ],
      "name": "AddressEmptyCode",
      "type": "error"
    },
    {
      "inputs": [
        {
          "internalType": "address",
          "name": "account",
          "type": "address"
        }
      ],
      "name": "AddressInsufficientBalance",
      "type": "error"
    },
    {
      "inputs": [],
      "name": "ERC1167FailedCreateClone",
      "type": "error"
    },
    {
      "inputs": [],
      "name": "FailedInnerCall",
      "type": "error"
    },
    {
      "inputs": [
        {
          "internalType": "address",
          "name": "token",
          "type": "address"
        }
      ],
      "name": "SafeERC20FailedOperation",
      "type": "error"
    },
    {
      "anonymous": false,
      "inputs": [
        {
          "indexed": true,
          "internalType": "address",
          "name": "creator",
          "type": "address"
        },
        {
          "indexed": true,
          "internalType": "string",
          "name": "name",
          "type": "string"
        },
        {
          "indexed": true,
          "internalType": "string",
          "name": "description",
          "type": "string"
        },
        {
          "indexed": false,
          "internalType": "address",
          "name": "newDeployedAddress",
          "type": "address"
        }
      ],
      "name": "GroupCreated",
      "type": "event"
    },
    {
      "anonymous": false,
      "inputs": [
        {
          "indexed": true,
          "internalType": "address",
          "name": "creator",
          "type": "address"
        },
        {
          "indexed": true,
          "internalType": "address",
          "name": "nftAddress",
          "type": "address"
        }
      ],
      "name": "NewNFTMinted",
      "type": "event"
    },
    {
      "anonymous": false,
      "inputs": [
        {
          "indexed": true,
          "internalType": "address",
          "name": "teamMember",
          "type": "address"
        },
        {
          "indexed": true,
          "internalType": "uint256",
          "name": "score",
          "type": "uint256"
        }
      ],
      "name": "TeamScoreChanged",
      "type": "event"
    },
    {
      "anonymous": false,
      "inputs": [
        {
          "indexed": true,
          "internalType": "address",
          "name": "withdrawer",
          "type": "address"
        },
        {
          "indexed": true,
          "internalType": "uint256",
          "name": "amount",
          "type": "uint256"
        }
      ],
      "name": "WithdrawalFromDevelopmentTeam",
      "type": "event"
    },
    {
      "inputs": [
        {
          "internalType": "uint256",
          "name": "",
          "type": "uint256"
        }
      ],
      "name": "Creators",
      "outputs": [
        {
          "internalType": "address",
          "name": "",
          "type": "address"
        }
      ],
      "stateMutability": "view",
      "type": "function"
    },
    {
      "inputs": [],
      "name": "USDC",
      "outputs": [
        {
          "internalType": "address",
          "name": "",
          "type": "address"
        }
      ],
      "stateMutability": "view",
      "type": "function"
    },
    {
      "inputs": [],
      "name": "USDC_token",
      "outputs": [
        {
          "internalType": "contract IERC20",
          "name": "",
          "type": "address"
        }
      ],
      "stateMutability": "view",
      "type": "function"
    },
    {
      "inputs": [],
      "name": "burnFee",
      "outputs": [
        {
          "internalType": "uint256",
          "name": "",
          "type": "uint256"
        }
      ],
      "stateMutability": "view",
      "type": "function"
    },
    {
      "inputs": [
        {
          "internalType": "string",
          "name": "_name",
          "type": "string"
        },
        {
          "internalType": "string",
          "name": "_description",
          "type": "string"
        },
        {
          "internalType": "address[]",
          "name": "_members",
          "type": "address[]"
        }
      ],
      "name": "createGroup",
      "outputs": [],
      "stateMutability": "nonpayable",
      "type": "function"
    },
    {
      "inputs": [],
      "name": "developmentTeam",
      "outputs": [
        {
          "internalType": "address",
          "name": "",
          "type": "address"
        }
      ],
      "stateMutability": "view",
      "type": "function"
    },
    {
      "inputs": [
        {
          "internalType": "uint256",
          "name": "_id",
          "type": "uint256"
        }
      ],
      "name": "getCreatorGroupAddress",
      "outputs": [
        {
          "internalType": "address",
          "name": "",
          "type": "address"
        }
      ],
      "stateMutability": "view",
      "type": "function"
    },
    {
      "inputs": [],
      "name": "implementContent",
      "outputs": [
        {
          "internalType": "address",
          "name": "",
          "type": "address"
        }
      ],
      "stateMutability": "view",
      "type": "function"
    },
    {
      "inputs": [],
      "name": "implementGroup",
      "outputs": [
        {
          "internalType": "address",
          "name": "",
          "type": "address"
        }
      ],
      "stateMutability": "view",
      "type": "function"
    },
    {
      "inputs": [
        {
          "internalType": "address",
          "name": "_groupAddress",
          "type": "address"
        }
      ],
      "name": "isCreatorGroup",
      "outputs": [
        {
          "internalType": "bool",
          "name": "",
          "type": "bool"
        }
      ],
      "stateMutability": "view",
      "type": "function"
    },
    {
      "inputs": [],
      "name": "marketplace",
      "outputs": [
        {
          "internalType": "address",
          "name": "",
          "type": "address"
        }
      ],
      "stateMutability": "view",
      "type": "function"
    },
    {
      "inputs": [],
      "name": "mintFee",
      "outputs": [
        {
          "internalType": "uint256",
          "name": "",
          "type": "uint256"
        }
      ],
      "stateMutability": "view",
      "type": "function"
    },
    {
      "inputs": [],
      "name": "numberOfCreators",
      "outputs": [
        {
          "internalType": "uint256",
          "name": "",
          "type": "uint256"
        }
      ],
      "stateMutability": "view",
      "type": "function"
    },
    {
      "inputs": [],
      "name": "owner",
      "outputs": [
        {
          "internalType": "address",
          "name": "",
          "type": "address"
        }
      ],
      "stateMutability": "view",
      "type": "function"
    },
    {
      "inputs": [
        {
          "internalType": "uint256",
          "name": "_id",
          "type": "uint256"
        },
        {
          "internalType": "uint256",
          "name": "_score",
          "type": "uint256"
        }
      ],
      "name": "setTeamScoreForCreatorGroup",
      "outputs": [],
      "stateMutability": "nonpayable",
      "type": "function"
    },
    {
      "inputs": [],
      "name": "withdraw",
      "outputs": [],
      "stateMutability": "nonpayable",
      "type": "function"
    }
  ],
  "bytecode": "0x60a0346200015757601f62000eeb38819003918201601f19168301916001600160401b038311848410176200015c5780849260e09460405283398101031262000157576200004d8162000172565b6200005b6020830162000172565b906200006a6040840162000172565b91620000796060850162000172565b906080850151936200009360c060a0880151970162000172565b9360018060a01b0319963388600054161760005560018060a01b039687809681809616620000c381151562000187565b8b600254161760025516620000da81151562000187565b896001541617600155600060035560085560095516620000fc81151562000187565b856006541617600655166200011381151562000187565b8360075416176007551680916200012c82151562000187565b600a541617600a55608052604051610d169081620001d582396080518181816106bd01526107bd0152f35b600080fd5b634e487b7160e01b600052604160045260246000fd5b51906001600160a01b03821682036200015757565b156200018f57565b60405162461bcd60e51b815260206004820152601360248201527f416464726573732063616e6e6f742062652030000000000000000000000000006044820152606490fdfe6080806040526004908136101561001557600080fd5b600091823560e01c91826310c7c225146109315750816313966db5146109135781631ae69b61146108f55781633ccfd60b146106ec578163403c94cb146106a75781635a789561146106895781635b7c16d61461066057816369b6f6741461061e5781637199ba2e146105f55781638055ccaa146105b457816389a302711461058b5781638da5cb5b14610564578163a62457161461053b578163a6bfb1b01461011d57508063abc8c7af146100f45763fce589d8146100d457600080fd5b346100f157806003193601126100f1576020600954604051908152f35b80fd5b50346100f157806003193601126100f1576002546040516001600160a01b039091168152602090f35b9050346105375760603660031901126105375767ffffffffffffffff908035828111610533576101509036908301610b66565b602435838111610412576101679036908401610b66565b916044359380851161052f573660238601121561052f57848201359081116103eb578060051b946040519161019f6020880184610b28565b82526020820190602482978201019036821161052b57602401915b818310610506575050508051156104c2578051156104af5784516001600160a01b0316330361045f576006546101f8906001600160a01b0316610c15565b6007549095906001600160a01b0390610212908216610c15565b168760085460095460018060a01b03600a541660018060a01b036002541691853b15610412576040516340f5e56b60e01b815260e0818b0152938593859384938f936102778f61026560e4890182610bd0565b8881036003190160248a015290610bd0565b6001600160a01b0390951660448701526064860152608485015260a484015260c4830152038183875af1801561041657610447575b5050600254600854600954600a546001600160a01b03908116949193811691908b163b156104435760405163de6d513360e01b815260c089820152965160c488018190528c979660e48801969594939291895b81811061042157505050602487015260448601526064850152608484015260a48301528290829081900381836001600160a01b038b165af18015610416576103fe575b50508054600160401b8110156103eb57916103a9916103698460016103af96018355610acd565b81546001600160a01b03898116600393841b81811b92901b1990921617909255908852600560205260408820805460ff1916600117905590549055610bf5565b91610bf5565b6040516001600160a01b0390931683529133907f5b23eebf6b486206a7ebb75e3fe5be54a58a2f66f1033a2a8eff9cae167dbd4090602090a480f35b634e487b7160e01b865260418252602486fd5b61040790610afe565b610412578438610342565b8480fd5b6040513d84823e3d90fd5b82516001600160a01b031689528f9a50602098890198909201916001016102ff565b8b80fd5b61045090610afe565b61045b5787386102ac565b8780fd5b60405162461bcd60e51b8152602081840152602360248201527f546865206669727374206d656d626572206d757374206265207468652063616c6044820152623632b960e91b6064820152608490fd5b634e487b7160e01b865260328252602486fd5b60405162461bcd60e51b8152602081840152601e60248201527f4174206c65617374206f6e65206f776e657220697320726571756972656400006044820152606490fd5b82356001600160a01b0381168103610526578152602092830192016101ba565b600080fd5b8880fd5b8580fd5b8380fd5b5080fd5b82346100f157806003193601126100f1576006546040516001600160a01b039091168152602090f35b82346100f157806003193601126100f157546040516001600160a01b039091168152602090f35b82346100f157806003193601126100f157600a546040516001600160a01b039091168152602090f35b82346100f15760203660031901126100f157813591548210156100f15760206105dc83610acd565b905460405160039290921b1c6001600160a01b03168152f35b82346100f157806003193601126100f1576001546040516001600160a01b039091168152602090f35b90503461053757602036600319011261053757356001600160a01b03811691908290036105265760408160209360ff9352600584522054166040519015158152f35b82346100f157806003193601126100f1576007546040516001600160a01b039091168152602090f35b82346100f15760203660031901126100f15760206105dc8335610acd565b82346100f157806003193601126100f1576040517f00000000000000000000000000000000000000000000000000000000000000006001600160a01b03168152602090f35b9050346105375781600319360112610537576001546001600160a01b039190821633036108bc5781600a54169160405180936370a0823160e01b8252308483015281602460209384935afa9384156108b1578594610882575b5083610777575b505050337fbfbe6ac2b8fb3d003934511ae6914fb4141b7a3fab5438ad22d15c139a3a484e8380a380f35b604051918183019063a9059cbb60e01b8252336024850152856044850152604484526080840184811067ffffffffffffffff82111761086d5761081292889283926040527f00000000000000000000000000000000000000000000000000000000000000001695519082875af13d15610865573d906107f582610b4a565b916108036040519384610b28565b82523d888584013e5b84610c7d565b8051918215159182610844575b5050905061082d578061074c565b604051635274afe760e01b81529182015260249150fd5b80925081938101031261052f5701518015908115036104125780388061081f565b60609061080c565b604186634e487b7160e01b6000525260246000fd5b9080945081813d83116108aa575b61089a8183610b28565b8101031261041257519238610745565b503d610890565b6040513d87823e3d90fd5b60649060206040519162461bcd60e51b8352820152601260248201527124b73b30b634b2103bb4ba34323930bbb2b960711b6044820152fd5b82346100f157806003193601126100f1576020600354604051908152f35b82346100f157806003193601126100f1576020600854604051908152f35b90915034610ac9576040366003190112610ac9578254602435926001600160a01b039281359284163303610a7f57508181541180610a77575b15610a3b5760648411610a0757848361098284610acd565b90549060031b1c1691823b156105375760248691836040519586948593632f02335760e11b85528401525af180156108b1576109f2575b506109c390610acd565b90549060031b1c167fe8fdff840b4b8a4752b1e7ac68942c2c35f9ff5a7215476475140f45256da0e58380a380f35b93610a006109c39295610afe565b93906109b9565b60649060206040519162461bcd60e51b8352820152600d60248201526c496e76616c69642073636f726560981b6044820152fd5b60649060206040519162461bcd60e51b835282015260156024820152740496e76616c69642063726561746f722067726f757605c1b6044820152fd5b50600161096a565b602060849262461bcd60e51b8352820152602160248201527f4f6e6c79206f776e65722063616e2063616c6c20746869732066756e6374696f6044820152603760f91b6064820152fd5b8280fd5b600454811015610ae857600460005260206000200190600090565b634e487b7160e01b600052603260045260246000fd5b67ffffffffffffffff8111610b1257604052565b634e487b7160e01b600052604160045260246000fd5b90601f8019910116810190811067ffffffffffffffff821117610b1257604052565b67ffffffffffffffff8111610b1257601f01601f191660200190565b81601f8201121561052657803590610b7d82610b4a565b92610b8b6040519485610b28565b8284526020838301011161052657816000926020809301838601378301015290565b60005b838110610bc05750506000910152565b8181015183820152602001610bb0565b90602091610be981518092818552858086019101610bad565b601f01601f1916010190565b610c0d90602060405192828480945193849201610bad565b810103902090565b6e5af43d82803e903d91602b57fd5bf390763d602d80600a3d3981f3363d3d373d3d3d363d7300000062ffffff8260881c161760005260781b17602052603760096000f0906001600160a01b03821615610c6b57565b6040516330be1a3d60e21b8152600490fd5b90610ca45750805115610c9257805190602001fd5b604051630a12f52160e11b8152600490fd5b81511580610cd7575b610cb5575090565b604051639996b31560e01b81526001600160a01b039091166004820152602490fd5b50803b15610cad56fea2646970667358221220873e67da9b692271a4ff5e796a258eea45b854131bbae76918f01c0abe85c18864736f6c63430008180033",
  "linkReferences": {},
  "deployedLinkReferences": {}
}