{
  "_format": "hh-sol-artifact-1",
  "contractName": "Marketplace",
  "sourceName": "contracts/Marketplace.sol",
  "abi": [
    {
      "inputs": [
        {
          "internalType": "address",
          "name": "_developmentTeam",
          "type": "address"
        },
        {
          "internalType": "uint256",
          "name": "_percentForSeller",
          "type": "uint256"
        },
        {
          "internalType": "address",
          "name": "_USDC",
          "type": "address"
        }
      ],
      "stateMutability": "nonpayable",
      "type": "constructor"
    },
    {
      "inputs": [
        {
          "internalType": "address",
          "name": "target",
          "type": "address"
        }
      ],
      "name": "AddressEmptyCode",
      "type": "error"
    },
    {
      "inputs": [
        {
          "internalType": "address",
          "name": "account",
          "type": "address"
        }
      ],
      "name": "AddressInsufficientBalance",
      "type": "error"
    },
    {
      "inputs": [],
      "name": "FailedInnerCall",
      "type": "error"
    },
    {
      "inputs": [],
      "name": "ReentrancyGuardReentrantCall",
      "type": "error"
    },
    {
      "inputs": [
        {
          "internalType": "address",
          "name": "token",
          "type": "address"
        }
      ],
      "name": "SafeERC20FailedOperation",
      "type": "error"
    },
    {
      "anonymous": false,
      "inputs": [
        {
          "indexed": true,
          "internalType": "address",
          "name": "buyer",
          "type": "address"
        },
        {
          "indexed": true,
          "internalType": "address",
          "name": "contractAddress",
          "type": "address"
        },
        {
          "indexed": true,
          "internalType": "uint256",
          "name": "nftId",
          "type": "uint256"
        },
        {
          "indexed": false,
          "internalType": "uint256",
          "name": "price",
          "type": "uint256"
        },
        {
          "indexed": false,
          "internalType": "uint256",
          "name": "time",
          "type": "uint256"
        }
      ],
      "name": "BuyDutchAuction",
      "type": "event"
    },
    {
      "anonymous": false,
      "inputs": [
        {
          "indexed": true,
          "internalType": "address",
          "name": "buyer",
          "type": "address"
        },
        {
          "indexed": true,
          "internalType": "address",
          "name": "contractAddress",
          "type": "address"
        },
        {
          "indexed": true,
          "internalType": "uint256",
          "name": "nftId",
          "type": "uint256"
        },
        {
          "indexed": false,
          "internalType": "uint256",
          "name": "price",
          "type": "uint256"
        },
        {
          "indexed": false,
          "internalType": "uint256",
          "name": "time",
          "type": "uint256"
        }
      ],
      "name": "BuyEnglishAuction",
      "type": "event"
    },
    {
      "anonymous": false,
      "inputs": [
        {
          "indexed": true,
          "internalType": "address",
          "name": "buyer",
          "type": "address"
        },
        {
          "indexed": true,
          "internalType": "address",
          "name": "contractAddress",
          "type": "address"
        },
        {
          "indexed": true,
          "internalType": "uint256",
          "name": "nftId",
          "type": "uint256"
        },
        {
          "indexed": false,
          "internalType": "uint256",
          "name": "price",
          "type": "uint256"
        },
        {
          "indexed": false,
          "internalType": "uint256",
          "name": "time",
          "type": "uint256"
        }
      ],
      "name": "BuyOfferingSale",
      "type": "event"
    },
    {
      "anonymous": false,
      "inputs": [
        {
          "indexed": true,
          "internalType": "uint256",
          "name": "id",
          "type": "uint256"
        },
        {
          "indexed": true,
          "internalType": "address",
          "name": "from",
          "type": "address"
        }
      ],
      "name": "CanceledListing",
      "type": "event"
    },
    {
      "anonymous": false,
      "inputs": [
        {
          "indexed": true,
          "internalType": "uint256",
          "name": "id",
          "type": "uint256"
        },
        {
          "indexed": true,
          "internalType": "uint256",
          "name": "sendingValue",
          "type": "uint256"
        },
        {
          "indexed": true,
          "internalType": "address",
          "name": "currentWinner",
          "type": "address"
        }
      ],
      "name": "NewBidToEnglishAuction",
      "type": "event"
    },
    {
      "anonymous": false,
      "inputs": [
        {
          "indexed": true,
          "internalType": "uint256",
          "name": "id",
          "type": "uint256"
        },
        {
          "indexed": true,
          "internalType": "address",
          "name": "from",
          "type": "address"
        },
        {
          "indexed": true,
          "internalType": "uint256",
          "name": "sendingValue",
          "type": "uint256"
        }
      ],
      "name": "NewBidToOfferingSale",
      "type": "event"
    },
    {
      "anonymous": false,
      "inputs": [
        {
          "indexed": true,
          "internalType": "address",
          "name": "_nftContractAddress",
          "type": "address"
        },
        {
          "indexed": true,
          "internalType": "uint256",
          "name": "nftId",
          "type": "uint256"
        },
        {
          "indexed": true,
          "internalType": "uint256",
          "name": "initialPrice",
          "type": "uint256"
        },
        {
          "indexed": false,
          "internalType": "uint256",
          "name": "reducingRate",
          "type": "uint256"
        },
        {
          "indexed": false,
          "internalType": "uint256",
          "name": "salePeriod",
          "type": "uint256"
        }
      ],
      "name": "NewDutchAuctionListing",
      "type": "event"
    },
    {
      "anonymous": false,
      "inputs": [
        {
          "indexed": true,
          "internalType": "address",
          "name": "_nftContractAddress",
          "type": "address"
        },
        {
          "indexed": true,
          "internalType": "uint256",
          "name": "_nftId",
          "type": "uint256"
        },
        {
          "indexed": true,
          "internalType": "uint256",
          "name": "_initialPrice",
          "type": "uint256"
        },
        {
          "indexed": false,
          "internalType": "uint256",
          "name": "_salePeriod",
          "type": "uint256"
        }
      ],
      "name": "NewEnglishAuctionListing",
      "type": "event"
    },
    {
      "anonymous": false,
      "inputs": [
        {
          "indexed": true,
          "internalType": "address",
          "name": "nftContractAddress",
          "type": "address"
        },
        {
          "indexed": true,
          "internalType": "uint256",
          "name": "nftId",
          "type": "uint256"
        },
        {
          "indexed": true,
          "internalType": "uint256",
          "name": "initialPrice",
          "type": "uint256"
        }
      ],
      "name": "NewOfferingSaleListing",
      "type": "event"
    },
    {
      "anonymous": false,
      "inputs": [
        {
          "indexed": true,
          "internalType": "uint256",
          "name": "id",
          "type": "uint256"
        },
        {
          "indexed": true,
          "internalType": "address",
          "name": "from",
          "type": "address"
        },
        {
          "indexed": true,
          "internalType": "uint256",
          "name": "amount",
          "type": "uint256"
        }
      ],
      "name": "NewWithdrawFromEnglishAuction",
      "type": "event"
    },
    {
      "anonymous": false,
      "inputs": [
        {
          "indexed": true,
          "internalType": "uint256",
          "name": "id",
          "type": "uint256"
        },
        {
          "indexed": true,
          "internalType": "address",
          "name": "from",
          "type": "address"
        },
        {
          "indexed": true,
          "internalType": "uint256",
          "name": "amount",
          "type": "uint256"
        }
      ],
      "name": "NewWithdrawFromOfferingSale",
      "type": "event"
    },
    {
      "anonymous": false,
      "inputs": [
        {
          "indexed": true,
          "internalType": "uint256",
          "name": "value",
          "type": "uint256"
        }
      ],
      "name": "PercentForLoyaltyFeeSet",
      "type": "event"
    },
    {
      "anonymous": false,
      "inputs": [
        {
          "indexed": true,
          "internalType": "uint256",
          "name": "_percentForSeller",
          "type": "uint256"
        }
      ],
      "name": "PercentForSellerSet",
      "type": "event"
    },
    {
      "anonymous": false,
      "inputs": [
        {
          "indexed": true,
          "internalType": "address",
          "name": "withdrawer",
          "type": "address"
        },
        {
          "indexed": true,
          "internalType": "uint256",
          "name": "amount",
          "type": "uint256"
        }
      ],
      "name": "Withdrawal",
      "type": "event"
    },
    {
      "inputs": [],
      "name": "USDC",
      "outputs": [
        {
          "internalType": "address",
          "name": "",
          "type": "address"
        }
      ],
      "stateMutability": "view",
      "type": "function"
    },
    {
      "inputs": [],
      "name": "USDC_token",
      "outputs": [
        {
          "internalType": "contract IERC20",
          "name": "",
          "type": "address"
        }
      ],
      "stateMutability": "view",
      "type": "function"
    },
    {
      "inputs": [
        {
          "internalType": "address[]",
          "name": "_members",
          "type": "address[]"
        },
        {
          "internalType": "uint256[]",
          "name": "_values",
          "type": "uint256[]"
        },
        {
          "internalType": "address",
          "name": "_nftContractAddress",
          "type": "address"
        },
        {
          "internalType": "uint256",
          "name": "_nftId",
          "type": "uint256"
        }
      ],
      "name": "addBalanceOfUser",
      "outputs": [],
      "stateMutability": "nonpayable",
      "type": "function"
    },
    {
      "inputs": [],
      "name": "balanceOfDevelopmentTeam",
      "outputs": [
        {
          "internalType": "uint256",
          "name": "",
          "type": "uint256"
        }
      ],
      "stateMutability": "view",
      "type": "function"
    },
    {
      "inputs": [
        {
          "internalType": "address",
          "name": "",
          "type": "address"
        }
      ],
      "name": "balanceOfSeller",
      "outputs": [
        {
          "internalType": "uint256",
          "name": "",
          "type": "uint256"
        }
      ],
      "stateMutability": "view",
      "type": "function"
    },
    {
      "inputs": [
        {
          "internalType": "address",
          "name": "",
          "type": "address"
        }
      ],
      "name": "balanceOfUser",
      "outputs": [
        {
          "internalType": "uint256",
          "name": "",
          "type": "uint256"
        }
      ],
      "stateMutability": "view",
      "type": "function"
    },
    {
      "inputs": [
        {
          "internalType": "uint256",
          "name": "_id",
          "type": "uint256"
        },
        {
          "internalType": "uint256",
          "name": "_sendingValue",
          "type": "uint256"
        }
      ],
      "name": "buyDutchAuction",
      "outputs": [],
      "stateMutability": "nonpayable",
      "type": "function"
    },
    {
      "inputs": [
        {
          "internalType": "address",
          "name": "_nftContractAddress",
          "type": "address"
        },
        {
          "internalType": "uint256",
          "name": "_nftId",
          "type": "uint256"
        }
      ],
      "name": "cancelListing",
      "outputs": [],
      "stateMutability": "nonpayable",
      "type": "function"
    },
    {
      "inputs": [
        {
          "internalType": "uint256",
          "name": "",
          "type": "uint256"
        }
      ],
      "name": "cancelListingState",
      "outputs": [
        {
          "internalType": "bool",
          "name": "",
          "type": "bool"
        }
      ],
      "stateMutability": "view",
      "type": "function"
    },
    {
      "inputs": [
        {
          "internalType": "address",
          "name": "_nftContractAddress",
          "type": "address"
        },
        {
          "internalType": "uint256",
          "name": "_nftId",
          "type": "uint256"
        }
      ],
      "name": "checkOwnerOfNFT",
      "outputs": [
        {
          "internalType": "bool",
          "name": "",
          "type": "bool"
        }
      ],
      "stateMutability": "view",
      "type": "function"
    },
    {
      "inputs": [],
      "name": "developmentTeam",
      "outputs": [
        {
          "internalType": "address",
          "name": "",
          "type": "address"
        }
      ],
      "stateMutability": "view",
      "type": "function"
    },
    {
      "inputs": [
        {
          "internalType": "uint256",
          "name": "",
          "type": "uint256"
        }
      ],
      "name": "dutchAuction_listedNumber",
      "outputs": [
        {
          "internalType": "uint256",
          "name": "",
          "type": "uint256"
        }
      ],
      "stateMutability": "view",
      "type": "function"
    },
    {
      "inputs": [
        {
          "internalType": "uint256",
          "name": "",
          "type": "uint256"
        }
      ],
      "name": "dutchAuctions",
      "outputs": [
        {
          "internalType": "uint256",
          "name": "initialPrice",
          "type": "uint256"
        },
        {
          "internalType": "uint256",
          "name": "reducingRate",
          "type": "uint256"
        },
        {
          "internalType": "uint256",
          "name": "salePeriod",
          "type": "uint256"
        }
      ],
      "stateMutability": "view",
      "type": "function"
    },
    {
      "inputs": [
        {
          "internalType": "address",
          "name": "_nftContractAddress",
          "type": "address"
        },
        {
          "internalType": "uint256",
          "name": "_nftId",
          "type": "uint256"
        }
      ],
      "name": "endEnglishAuction",
      "outputs": [],
      "stateMutability": "nonpayable",
      "type": "function"
    },
    {
      "inputs": [
        {
          "internalType": "uint256",
          "name": "_id",
          "type": "uint256"
        },
        {
          "internalType": "address",
          "name": "_buyer",
          "type": "address"
        }
      ],
      "name": "endOfferingSale",
      "outputs": [],
      "stateMutability": "nonpayable",
      "type": "function"
    },
    {
      "inputs": [
        {
          "internalType": "uint256",
          "name": "",
          "type": "uint256"
        },
        {
          "internalType": "address",
          "name": "",
          "type": "address"
        }
      ],
      "name": "englishAuction_balancesForWithdraw",
      "outputs": [
        {
          "internalType": "uint256",
          "name": "",
          "type": "uint256"
        }
      ],
      "stateMutability": "view",
      "type": "function"
    },
    {
      "inputs": [
        {
          "internalType": "uint256",
          "name": "",
          "type": "uint256"
        }
      ],
      "name": "englishAuction_listedNumber",
      "outputs": [
        {
          "internalType": "uint256",
          "name": "",
          "type": "uint256"
        }
      ],
      "stateMutability": "view",
      "type": "function"
    },
    {
      "inputs": [
        {
          "internalType": "uint256",
          "name": "",
          "type": "uint256"
        }
      ],
      "name": "englishAuctions",
      "outputs": [
        {
          "internalType": "uint256",
          "name": "initialPrice",
          "type": "uint256"
        },
        {
          "internalType": "uint256",
          "name": "salePeriod",
          "type": "uint256"
        },
        {
          "internalType": "address",
          "name": "currentWinner",
          "type": "address"
        },
        {
          "internalType": "uint256",
          "name": "currentPrice",
          "type": "uint256"
        }
      ],
      "stateMutability": "view",
      "type": "function"
    },
    {
      "inputs": [
        {
          "internalType": "address",
          "name": "to",
          "type": "address"
        }
      ],
      "name": "getBalanceOfUser",
      "outputs": [
        {
          "internalType": "uint256",
          "name": "",
          "type": "uint256"
        }
      ],
      "stateMutability": "view",
      "type": "function"
    },
    {
      "inputs": [
        {
          "internalType": "uint256",
          "name": "id",
          "type": "uint256"
        }
      ],
      "name": "getDutchAuctionPrice",
      "outputs": [
        {
          "internalType": "uint256",
          "name": "",
          "type": "uint256"
        }
      ],
      "stateMutability": "view",
      "type": "function"
    },
    {
      "inputs": [],
      "name": "getListedDutchAuctionNumber",
      "outputs": [
        {
          "internalType": "uint256",
          "name": "",
          "type": "uint256"
        }
      ],
      "stateMutability": "view",
      "type": "function"
    },
    {
      "inputs": [],
      "name": "getListedEnglishAuctionNumber",
      "outputs": [
        {
          "internalType": "uint256",
          "name": "",
          "type": "uint256"
        }
      ],
      "stateMutability": "view",
      "type": "function"
    },
    {
      "inputs": [],
      "name": "getListedNumber",
      "outputs": [
        {
          "internalType": "uint256",
          "name": "",
          "type": "uint256"
        }
      ],
      "stateMutability": "view",
      "type": "function"
    },
    {
      "inputs": [],
      "name": "getOfferingSaleAuctionNumber",
      "outputs": [
        {
          "internalType": "uint256",
          "name": "",
          "type": "uint256"
        }
      ],
      "stateMutability": "view",
      "type": "function"
    },
    {
      "inputs": [
        {
          "internalType": "address",
          "name": "_nftContractAddress",
          "type": "address"
        },
        {
          "internalType": "uint256",
          "name": "_nftId",
          "type": "uint256"
        },
        {
          "internalType": "uint256",
          "name": "_initialPrice",
          "type": "uint256"
        },
        {
          "internalType": "uint256",
          "name": "_reducingRate",
          "type": "uint256"
        },
        {
          "internalType": "uint256",
          "name": "_salePeriod",
          "type": "uint256"
        }
      ],
      "name": "listToDutchAuction",
      "outputs": [],
      "stateMutability": "nonpayable",
      "type": "function"
    },
    {
      "inputs": [
        {
          "internalType": "address",
          "name": "_nftContractAddress",
          "type": "address"
        },
        {
          "internalType": "uint256",
          "name": "_nftId",
          "type": "uint256"
        },
        {
          "internalType": "uint256",
          "name": "_initialPrice",
          "type": "uint256"
        },
        {
          "internalType": "uint256",
          "name": "_salePeriod",
          "type": "uint256"
        }
      ],
      "name": "listToEnglishAuction",
      "outputs": [],
      "stateMutability": "nonpayable",
      "type": "function"
    },
    {
      "inputs": [
        {
          "internalType": "address",
          "name": "_nftContractAddress",
          "type": "address"
        },
        {
          "internalType": "uint256",
          "name": "_nftId",
          "type": "uint256"
        },
        {
          "internalType": "uint256",
          "name": "_initialPrice",
          "type": "uint256"
        }
      ],
      "name": "listToOfferingSale",
      "outputs": [],
      "stateMutability": "nonpayable",
      "type": "function"
    },
    {
      "inputs": [
        {
          "internalType": "uint256",
          "name": "",
          "type": "uint256"
        }
      ],
      "name": "listedNFTs",
      "outputs": [
        {
          "internalType": "enum Marketplace.SaleType",
          "name": "_saleType",
          "type": "uint8"
        },
        {
          "internalType": "uint256",
          "name": "Id",
          "type": "uint256"
        },
        {
          "internalType": "address",
          "name": "currentOwner",
          "type": "address"
        },
        {
          "internalType": "address",
          "name": "nftContractAddress",
          "type": "address"
        },
        {
          "internalType": "uint256",
          "name": "nftId",
          "type": "uint256"
        },
        {
          "internalType": "uint256",
          "name": "startTime",
          "type": "uint256"
        },
        {
          "internalType": "uint256",
          "name": "endTime",
          "type": "uint256"
        },
        {
          "internalType": "bool",
          "name": "endState",
          "type": "bool"
        }
      ],
      "stateMutability": "view",
      "type": "function"
    },
    {
      "inputs": [
        {
          "internalType": "uint256",
          "name": "_id",
          "type": "uint256"
        },
        {
          "internalType": "uint256",
          "name": "_sendingValue",
          "type": "uint256"
        }
      ],
      "name": "makeBidToEnglishAuction",
      "outputs": [],
      "stateMutability": "nonpayable",
      "type": "function"
    },
    {
      "inputs": [
        {
          "internalType": "uint256",
          "name": "_id",
          "type": "uint256"
        },
        {
          "internalType": "uint256",
          "name": "_sendingValue",
          "type": "uint256"
        }
      ],
      "name": "makeBidToOfferingSale",
      "outputs": [],
      "stateMutability": "nonpayable",
      "type": "function"
    },
    {
      "inputs": [
        {
          "internalType": "uint256",
          "name": "",
          "type": "uint256"
        },
        {
          "internalType": "address",
          "name": "",
          "type": "address"
        }
      ],
      "name": "offeringSale_balancesForWithdraw",
      "outputs": [
        {
          "internalType": "uint256",
          "name": "",
          "type": "uint256"
        }
      ],
      "stateMutability": "view",
      "type": "function"
    },
    {
      "inputs": [
        {
          "internalType": "uint256",
          "name": "",
          "type": "uint256"
        }
      ],
      "name": "offeringSale_listedNumber",
      "outputs": [
        {
          "internalType": "uint256",
          "name": "",
          "type": "uint256"
        }
      ],
      "stateMutability": "view",
      "type": "function"
    },
    {
      "inputs": [
        {
          "internalType": "uint256",
          "name": "",
          "type": "uint256"
        }
      ],
      "name": "offeringSales",
      "outputs": [
        {
          "internalType": "uint256",
          "name": "initialPrice",
          "type": "uint256"
        },
        {
          "internalType": "uint256",
          "name": "bidNumber",
          "type": "uint256"
        }
      ],
      "stateMutability": "view",
      "type": "function"
    },
    {
      "inputs": [],
      "name": "owner",
      "outputs": [
        {
          "internalType": "address",
          "name": "",
          "type": "address"
        }
      ],
      "stateMutability": "view",
      "type": "function"
    },
    {
      "inputs": [],
      "name": "percentForLoyaltyFee",
      "outputs": [
        {
          "internalType": "uint256",
          "name": "",
          "type": "uint256"
        }
      ],
      "stateMutability": "view",
      "type": "function"
    },
    {
      "inputs": [],
      "name": "percentForSeller",
      "outputs": [
        {
          "internalType": "uint256",
          "name": "",
          "type": "uint256"
        }
      ],
      "stateMutability": "view",
      "type": "function"
    },
    {
      "inputs": [
        {
          "internalType": "uint256",
          "name": "_percentForLoyaltyFee",
          "type": "uint256"
        }
      ],
      "name": "setPercentForLoyaltyFee",
      "outputs": [],
      "stateMutability": "nonpayable",
      "type": "function"
    },
    {
      "inputs": [
        {
          "internalType": "uint256",
          "name": "_percentForSeller",
          "type": "uint256"
        }
      ],
      "name": "setPercentForSeller",
      "outputs": [],
      "stateMutability": "nonpayable",
      "type": "function"
    },
    {
      "inputs": [],
      "name": "withdraw",
      "outputs": [],
      "stateMutability": "nonpayable",
      "type": "function"
    },
    {
      "inputs": [
        {
          "internalType": "uint256",
          "name": "id",
          "type": "uint256"
        },
        {
          "internalType": "address",
          "name": "to",
          "type": "address"
        }
      ],
      "name": "withdrawBalanceForEnglishAuction",
      "outputs": [
        {
          "internalType": "uint256",
          "name": "",
          "type": "uint256"
        }
      ],
      "stateMutability": "view",
      "type": "function"
    },
    {
      "inputs": [
        {
          "internalType": "uint256",
          "name": "id",
          "type": "uint256"
        },
        {
          "internalType": "address",
          "name": "to",
          "type": "address"
        }
      ],
      "name": "withdrawBalanceForOfferingSale",
      "outputs": [
        {
          "internalType": "uint256",
          "name": "",
          "type": "uint256"
        }
      ],
      "stateMutability": "view",
      "type": "function"
    },
    {
      "inputs": [
        {
          "internalType": "uint256",
          "name": "_id",
          "type": "uint256"
        }
      ],
      "name": "withdrawFromEnglishAuction",
      "outputs": [],
      "stateMutability": "nonpayable",
      "type": "function"
    },
    {
      "inputs": [
        {
          "internalType": "uint256",
          "name": "_id",
          "type": "uint256"
        }
      ],
      "name": "withdrawFromOfferingSale",
      "outputs": [],
      "stateMutability": "nonpayable",
      "type": "function"
    },
    {
      "inputs": [],
      "name": "withdrawFromSeller",
      "outputs": [],
      "stateMutability": "nonpayable",
      "type": "function"
    }
  ],
  "bytecode": "0x60a0346200017457601f62002ec338819003918201601f19168301916001600160401b03831184841017620001795780849260609460405283398101031262000174576200004d816200018f565b620000606040602084015193016200018f565b6001600081905580546001600160a01b03199081163317909155926001600160a01b0392831662000093811515620001a4565b846002541617600255612710811115806200016a575b1562000130576004556000600355168091620000c7821515620001a4565b60075416176007556080526101f4600555604051612cdf9081620001e4823960805181818161034e01528181610441015281816106b001528181610e8b01528181610f10015281816115be015281816117830152818161180101528181611b4c0152611f7f0152f35b60405162461bcd60e51b8152602060048201526012602482015271496e76616c69642070657263656e7461676560701b6044820152606490fd5b50801515620000a9565b600080fd5b634e487b7160e01b600052604160045260246000fd5b51906001600160a01b03821682036200017457565b15620001ac57565b60405162461bcd60e51b815260206004820152600f60248201526e496e76616c6964206164647265737360881b6044820152606490fdfe60406080815260048036101561001457600080fd5b600091823560e01c9081630d98ecf1146120725781630e1eef6d146120495781631171d65f14611d5f57816312cae7af146117b45781631bb1531714611d0b5781631d9db6e41461190c5781632156506a146118d457816324f9df94146118b557816328c011a114610beb5781632c29cc62146118965781633ccfd60b14611830578163403c94cb146117ec57816345909a6f146117b457816349df3b09146116545781634ca76c3c14611617578163508de7391461154c5781635bf319521461152d57816364f2a481146113eb57816366aa82bb146113bd57816369eaabfc1461139e5781637199ba2e1461137557816373c129e0146111a457816389a302711461117b5781638da5cb5b1461115257816395059aa71461112a578163974f372a146110c757816399f8cbfc146110955781639f4c1aa5146104aa578163a01dc41f14610fe4578163a7616dc814610fc5578163a80ebe3a14610c56578163ad3b86cb14610c2d578163b2571e4014610beb578163b2ddee061461097d578163b3b32b4914610713578163c4aa547c146106f4578163c5a5c9d01461050b578163cd919e68146104ec578163d8cbfb0e146104aa578163e2955c1d14610377578163ecc273d1146102d6578163f2ab2fc014610289578163f32edc2f1461025c575063fd72fcd41461020657600080fd5b34610258576020366003190112610258573561022d60018060a01b03600154163314612612565b806005557fd3ad2754f450b3b6222a86c7cd18d0e58dd6ff44b0e825ddf801d5ee17d25f838280a280f35b5080fd5b91905034610285576020366003190112610285576020928291358152600d845220549051908152f35b8280fd5b91905034610285576020366003190112610285573591600e548310156102d357506102b5606092612323565b50805491600260018301549201549181519384526020840152820152f35b80fd5b8390346102585781600319360112610258576102f0612aef565b33825260086020526103068183205415156126d1565b33825260086020528120818154915580610347575b337f7fcf532c15f0a6db0bd6d0e038bea71d30d808c7d98cb3bf7268a95bf5081b658380a36001815580f35b61037281337f0000000000000000000000000000000000000000000000000000000000000000612b12565b61031b565b91905034610285576020806003193601126104a657813591610397612aef565b82601254118061049e575b6103ab90612462565b82855260138252600160ff60076103c487892054612287565b5001541615150361046a57508184526010815282842033600052815283836000205493841515926103f4846127fc565b848352601081528183209033600052526000205561043a575b33907fb5bdde437209577f184ab840c8f610999fd6a529503e4f3d97fcc42c5ac3f3618480a46001815580f35b61046582337f0000000000000000000000000000000000000000000000000000000000000000612b12565b61040d565b60649184519162461bcd60e51b8352820152601060248201526f139bdd08199a5b9a5cda1959081e595d60821b6044820152fd5b5060016103a2565b8380fd5b91905034610285578160031936011261028557816020936104c9612207565b9235815260108552209060018060a01b0316600052825280600020549051908152f35b8390346102585781600319360112610258576020906009549051908152f35b8383346102585761051b3661221d565b918160125411806106ec575b61053090612462565b818452602094601386528085205491828652600a875261055660ff8388205416156124bc565b61057060ff600761056686612287565b500154161561274f565b6105868161057d85612287565b50015493612287565b50600201546001600160a01b0316926105ab6105a186612233565b505487101561278f565b60016105b686612233565b5001805498906000198a146106d9576001899a99979899019055876106a8575b86865260118152838620336000528152878460002055868652601081528386209033600052528260002061060b8882546126c4565b9055833b156106a4578251631f652fd160e21b81529182018681526020810191909152336040820152606081018790529092849184919082908490829060800103925af190811561069b5750610687575b505033907fc916afba68b831646255d3330ad802fdad7afb326511a96cc671f51e5321dd5e8480a480f35b610690906122d8565b61028557828461065c565b513d84823e3d90fd5b8480fd5b6106d48830337f0000000000000000000000000000000000000000000000000000000000000000612b55565b6105d6565b634e487b7160e01b895260118452602489fd5b506001610527565b839034610258578160031936011261025857602090600e549051908152f35b8383346102585760803660031901126102585780356001600160401b03938482116104a657366023830112156104a6578183013560246107528261230c565b9361075f845195866122eb565b828552602092828487019160051b83010191368311610956578301905b82821061095e57505050803596871161095a573660238801121561095a5786850135966107a88861230c565b976107b58551998a6122eb565b80895282848a019160051b830101913683116109565783859101915b83831061094657505050506044359460018060a01b039182871680970361094157600954889760643590895b8381106108b6575b505050506001809715150361086957505085968596955b610824578780f35b845186101561086557868661083a829884612911565b5184610846838a612911565b51168b526006865261085c878c209182546126c4565b9055019561081c565b8780f35b845162461bcd60e51b81529182018490526022908201527f496e76616c6964206164647265737320666f7220616464696e6720726576656e604482015261756560f01b6064820152608490fd5b818760036108c384612287565b50015416148061092c575b80610914575b806108f8575b6108e6576001016107fd565b50505050955060019589808080610805565b50600160ff600761090884612287565b500154161515146108da565b5086600261092183612287565b5001541633146108d4565b50828661093883612287565b500154146108ce565b600080fd5b82358152918101918591016107d1565b8880fd5b8580fd5b81356001600160a01b038116810361094157815290840190840161077c565b919050346102855781600319360112610285576109986121f1565b9160019160248381356109b7826109af838a6128a2565b15151461253d565b60095488978892906001600160a01b0390811690845b848110610b90575b5050505050151503610b5e576109fb60ff60076109f188612287565b50015416156124fd565b83610a0586612287565b50015460ff610a1387612287565b5054166003811015610aea571580610b3d575b610afc5760ff610a3587612287565b5054166003811015610aea5760028691149182610ad3575b5050610a92575050828452600a60205283209060ff1982541617905533907f2cbb86192e8650d785227196facd0d43f56b7b91450d36fcdceee8d9016a1de68380a380f35b601e906020606494519362461bcd60e51b85528401528201527f416c72656164792073616c65206f66666572696e6720737461727465642100006044820152fd5b610ade919250612233565b50015415158438610a4d565b634e487b7160e01b8852602184528288fd5b5060209081606494519362461bcd60e51b85528401528201527f416c726561647920656e676c6973682061756374696f6e2073746172746564216044820152fd5b506003610b4982612268565b500154610b5582612268565b50541415610a26565b600e906020606494519362461bcd60e51b85528401528201526d139bdd081b1a5cdd1959081e595d60921b6044820152fd5b9091809394959650826003610ba484612287565b500154161480610bd6575b610bc1578901939291908995946109cd565b959950505050505093838038808080806109d5565b508388610be283612287565b50015414610baf565b9190503461028557816003193601126102855781602093610c0a612207565b92358152600b8552209060018060a01b0316600052825280600020549051908152f35b91905034610285576020366003190112610285576020928291358152600f845220549051908152f35b90503461028557610c663661221d565b909182600e541180610fbd575b15610f6d576003908386526020600f815281872054808852600a8252610c9f60ff848a205416156124bc565b610caf60ff600761056684612287565b610cde610cd76005610cc084612287565b5001546002610cce8a612323565b500154906126c4565b4210612712565b610ce781612287565b5060018060a01b039485910154169587610d0083612287565b50015497610d1d866002610d1386612287565b5001541692612848565b96878103610f3a5790818b92610f08575b50612710610d3e6005548a61259b565b0496893b156102855786516344c6ab6760e11b81528281018c9052602481018990528381604481838f5af18015610eea57908491610ef4575b50508651638da5cb5b60e01b8152868184818e5afa908115610eea57908592918591610ebd575b501614610eb4575b86610e84575b883b1561025857818a610dd492885193849283926323b872dd60e01b845288339185016125e3565b0381838d5af18015610e7a57918a93918a93610e5c575b505091610e2891610e459493610e227f6796d0260f5ec8fd8dcb4b0e2a93d26cb9c4607f2ba184c3ac49c882fa679009998b612605565b90612a46565b6007610e3382612287565b5001805460ff19166001179055612287565b50600642910155815193845242908401523392a480f35b909250610e6b919493506122d8565b61095657908688918a38610deb565b86513d84823e3d90fd5b610eaf878a7f0000000000000000000000000000000000000000000000000000000000000000612925565b610dac565b95508095610da6565b610edd9150883d8a11610ee3575b610ed581836122eb565b8101906125c4565b38610d9e565b503d610ecb565b88513d86823e3d90fd5b610efd906122d8565b610285578238610d77565b610f349030337f0000000000000000000000000000000000000000000000000000000000000000612b55565b38610d2e565b855162461bcd60e51b8152808301869052600d60248201526c4e6f742065786163742066656560981b6044820152606490fd5b5162461bcd60e51b8152602081850152602560248201527f4e6f74206c697374656420696e207468652064757463682061756374696f6e206044820152643634b9ba1760d91b6064820152608490fd5b506001610c73565b8390346102585781600319360112610258576020906005549051908152f35b839150346102585760203660031901126102585782356009548110156102855761100d90612287565b5060ff8154169160018201549060018060a01b03806002850154169060038501541690878501549260058601549460ff600760068901549801541697825199600382101561108257506101009a50895260208901528701526060860152608085015260a084015260c0830152151560e0820152f35b634e487b7160e01b815260218c52602490fd5b8390346102585780600319360112610258576020906110be6110b56121f1565b602435906128a2565b90519015158152f35b838334610258576020366003190112610258573590600c548210156102d357506110f090612268565b50805460018201546002830154600390930154935191825260208201526001600160a01b0390911660408201526060810191909152608090f35b905082346102d35760203660031901126102d3575061114b60209235612848565b9051908152f35b83903461025857816003193601126102585760015490516001600160a01b039091168152602090f35b83903461025857816003193601126102585760075490516001600160a01b039091168152602090f35b839150346102585760a0366003190112610258576111c06121f1565b60243590604435926064356084356111e560016111dd87876128a2565b151514612342565b6111f3610e1082048361259b565b86111561132357600e54938351606081018181106001600160401b0382111761130e5785528781526020810184815281860184815290600160401b8810156112fb5760018801600e5561124588612323565b9390936112e9575183555160018301555160029091015583517fdd38df284e4fd781de0a9bfb7cdac75d0e5ee042f7a3fcbe1672491d0ccb3ad2949392916112db9190611291826122a6565b60018252876020830152338683015260018060a01b0316968760608301528860808301524260a08301528a60c08301528a60e0830152600954908b52600f602052858b2055612384565b82519182526020820152a480f35b634e487b7160e01b8c528b8d5260248cfd5b634e487b7160e01b8b5260418c5260248bfd5b60418b634e487b7160e01b6000525260246000fd5b825162461bcd60e51b81526020818a0152602660248201527f496e76616c696420696e666f726d6174696f6e20666f722044757463682041756044820152656374696f6e2160d01b6064820152608490fd5b83903461025857816003193601126102585760025490516001600160a01b039091168152602090f35b8390346102585781600319360112610258576020906003549051908152f35b91905034610285576020366003190112610285578160209360ff92358152600a855220541690519015158152f35b83915034610258576060366003190112610258576114076121f1565b604435916024359161141e60016111dd85846128a2565b60125482518381018181106001600160401b0382111761151857845285815260208101878152600160401b831015611505576001830160125561146083612233565b9290926114f3575182555160019091015582516114cc92909190611483836122a6565b60028352816020840152338584015260018060a01b0316938460608401528560808401524260a08401528760c08401528760e08401526009549188526013602052872055612384565b7f847d02d59498b1588a4901e35f8ead1cf5b54a04d31be2f73690b1c7956256898480a480f35b634e487b7160e01b8952888a52602489fd5b634e487b7160e01b885260418952602488fd5b604189634e487b7160e01b6000525260246000fd5b9190503461028557826003193601126102855760209250549051908152f35b919050346102855760203660031901126102855735611569612aef565b80600c54118061160f575b61157d90612668565b808352600b60205281832033600052602052828260002054926115a18415156127fc565b828252600b60205280822033600052602052600020556115e282337f0000000000000000000000000000000000000000000000000000000000000000612b12565b33907f35e5df605dda7ca8963caddfbbaf54ec57dabd2f068a2196f3544facdc988c818480a46001815580f35b506001611574565b8383346102585760203660031901126102585735906012548210156102d3575061164090612233565b506001815491015482519182526020820152f35b839034610258576116643661221d565b909182600c5411806117ac575b61167a90612668565b828452600d6020526116cb60ff600761056684882054808952600a6020526116a784878b205416156124bc565b6116c6610cd760056116b884612287565b5001546001610cce8c612268565b612287565b61172260036116d985612268565b500154916116e685612268565b50600201546001600160a01b03166116ff84861161278f565b8461177b575b858752600b602052818720906000526020526000209182546126c4565b905580600361173084612268565b500155600261173e83612268565b500180546001600160a01b03191633908117909155917fe0eb3c9d38ff70f5433fba54f1767a50cee8ef0961f7849fad985c35a521d4d48480a480f35b6117a78530337f0000000000000000000000000000000000000000000000000000000000000000612b55565b611705565b506001611671565b8390346102585760203660031901126102585760209181906001600160a01b036117dc6121f1565b1681526006845220549051908152f35b839034610258578160031936011261025857517f00000000000000000000000000000000000000000000000000000000000000006001600160a01b03168152602090f35b83346102d357806003193601126102d357611849612aef565b61185e60018060a01b036002541633146126d1565b600354816003558061034757337f7fcf532c15f0a6db0bd6d0e038bea71d30d808c7d98cb3bf7268a95bf5081b658380a36001815580f35b839034610258578160031936011261025857602090600c549051908152f35b8390346102585781600319360112610258576020906012549051908152f35b8390346102585760203660031901126102585760209181906001600160a01b036118fc6121f1565b1681526008845220549051908152f35b919050346102855781600319360112610285576119276121f1565b600c5460248035946001600160a01b038481169593919291889081805b828110611cb1575b5015611c8357811080611c7b575b61196390612668565b808952602095600d8752848a205490818b52600a885261198960ff878d205416156124bc565b6119a5600561199784612287565b5001546001610cce86612268565b421115611c415760036119b784612268565b500154946119c484612268565b5054978560026119d386612287565b5001541698893303611be657871115611bb9578c906127106119f76005548a61259b565b04928c3b15610285578284918f8f90836044928f5196879586946344c6ab6760e11b86528a8601528401525af18015611b9b57908391611ba5575b5050808b8d8b5192838092638da5cb5b60e01b82525afa908115611b9b578b9189918e8692611b7e575b50501614611b75575b82611b45575b866002611a7788612268565b50015416908c3b15610285578d918d8c858094611aa78f51978896879586946323b872dd60e01b865285016125e3565b03925af18015611b3b57908d94939291611b18575b505092610e2860029593611af9937fe32ccb4404b209ae02aed86cbe209e9aed300b1c3fd97907b9b68075dae79d969b610e22611b05988c612605565b50600642910155612268565b500154169382519182524290820152a480f35b611b279192959a9694506122d8565b611b37578a919397928c38611abc565b8b80fd5b89513d84823e3d90fd5b611b7083857f0000000000000000000000000000000000000000000000000000000000000000612925565b611a6b565b91508091611a65565b611b949250803d10610ee357610ed581836122eb565b388e611a5c565b8a513d85823e3d90fd5b611bae906122d8565b610258578138611a32565b600a6064928b8a519362461bcd60e51b8552840152820152694e6f206269646465722160b01b6044820152fd5b5060316084928b8a519362461bcd60e51b85528401528201527f4f6e6c792063757272656e74204f776e657220697320616c6c6f77656420746f6044820152701032b732103a34329030bab1ba34b7b71760791b6064820152fd5b855162461bcd60e51b81528088018990526015818701527441756374696f6e206973206e6f7420656e6465642160581b6044820152606490fd5b50600161195a565b845162461bcd60e51b81526020818801526009818601526815dc9bdb99c81b999d60ba1b6044820152606490fd5b808c52600d602052868c20548b898c886003611ccc86612287565b50015416149283611cf3575b505050611ce757600101611944565b9250600190503861194c565b611cff91929350612287565b500154148b8938611cd8565b5050346102585760203660031901126102585780358091611d3760018060a01b03600154163314612612565b557ff4c32fd7eb0809a3dfca6361a38bbe7c6fa139d38b8ab31b42a821c9b3bd60d58280a280f35b905034610285578060031936011261028557813590611d7c612207565b91806012541180612041575b611d9190612462565b808552602091601383528086205491828752600a8452611db760ff8389205416156124bc565b611dc760ff60076109f186612287565b808752601184528187206001600160a01b03868116808a529186528389205491959192908315611ffe57806003611dfd88612287565b500154169789611e0c88612287565b50015499611e1f60016109af8d8d6128a2565b612710611e2e6005548861259b565b04928c8b3b156102d357808c60448f8c5194859384926344c6ab6760e11b8452898401528a60248401525af18015611ff257611fda575b5090808d9392878d8b5193848092638da5cb5b60e01b82525afa918215611fd0578592611fb1575b50163314611fa8575b83611f78575b8a3b15610285578b8b611ec8938580948c51968795869485936323b872dd60e01b8552339085016125e3565b03925af18015611f6e57918b93918b93611f4e575b5050611f19927f2ad8ea9a278b71cc3e6ac12fcd97c2adb111c81bfff61a05d079dd5534a634c19892611f13610e289389612605565b33612a46565b5060064291015588526010815282882085600052815282600020611f3e838254612605565b905582519182524290820152a480f35b909250611f5c9193506122d8565b611f6a578789918b38611edd565b8980fd5b87513d84823e3d90fd5b611fa3848c7f0000000000000000000000000000000000000000000000000000000000000000612925565b611e9c565b92508192611e96565b611fc9919250883d8a11610ee357610ed581836122eb565b9038611e8d565b8a513d87823e3d90fd5b9c611fe9839e949392946122d8565b9c919290611e65565b8e8a51903d90823e3d90fd5b845162461bcd60e51b8152808a01849052601b60248201527f427579657220646f65736e2774206861766520616e79206269642e00000000006044820152606490fd5b506001611d88565b919050346102855760203660031901126102855760209282913581526013845220549051908152f35b919050346102855760803660031901126102855761208e6121f1565b906024359160443593606435916120aa60016111dd87846128a2565b600c5493825190608082018281106001600160401b038211176121de5784528782526020820191858352848101928a845260608201918a8352600160401b8910156121cb5760018901600c556120ff89612268565b9490946121b9575051835551600183015591516002820180546001600160a01b0319166001600160a01b03928316179055915160039091015582517f0110aad12ec5d2c36c02b60aa30fa370d4feb544852a1a0cf514cbeca6dfb8f994602094909390926121b19291612171836122a6565b8b83528887840152338584015216968760608301528860808301524260a08301528a60c08301528a60e0830152600954908b52600d8652838b2055612384565b51908152a480f35b634e487b7160e01b8d528c905260248cfd5b634e487b7160e01b8c526041845260248cfd5b634e487b7160e01b8a526041825260248afd5b600435906001600160a01b038216820361094157565b602435906001600160a01b038216820361094157565b6040906003190112610941576004359060243590565b60125481101561225257601260005260206000209060011b0190600090565b634e487b7160e01b600052603260045260246000fd5b600c5481101561225257600c60005260206000209060021b0190600090565b60095481101561225257600960005260206000209060031b0190600090565b61010081019081106001600160401b038211176122c257604052565b634e487b7160e01b600052604160045260246000fd5b6001600160401b0381116122c257604052565b90601f801991011681019081106001600160401b038211176122c257604052565b6001600160401b0381116122c25760051b60200190565b600e5481101561225257600e6000526003602060002091020190600090565b1561234957565b60405162461bcd60e51b815260206004820152601360248201527224b73b30b634b2103a37b5b2b71037bbb732b960691b6044820152606490fd5b600954600160401b8110156122c2578060016123a39201600955612287565b61244c5781519060038210156124365760e0600760ff9283199484868354169116178155602086015160018201556002810160018060a01b0390816040890151169060018060a01b031991828254161790556003830191606089015116908254161790556080860151600482015560a0860151600582015560c08601516006820155019301511515918354169116179055565b634e487b7160e01b600052602160045260246000fd5b634e487b7160e01b600052600060045260246000fd5b1561246957565b60405162461bcd60e51b815260206004820152602560248201527f4e6f74206c697374656420696e20746865206f66666572696e672073616c65206044820152643634b9ba1760d91b6064820152608490fd5b156124c357565b60405162461bcd60e51b81526020600482015260126024820152712634b9ba34b7339021b0b731b2b63632b21760711b6044820152606490fd5b1561250457565b60405162461bcd60e51b8152602060048201526011602482015270416c726561647920736f6c64206f75742160781b6044820152606490fd5b1561254457565b60405162461bcd60e51b815260206004820152602960248201527f6f6e6c7920746865206e6674206f776e65722063616e2063616c6c207468697360448201526810333ab731ba34b7b760b91b6064820152608490fd5b818102929181159184041417156125ae57565b634e487b7160e01b600052601160045260246000fd5b9081602091031261094157516001600160a01b03811681036109415790565b6001600160a01b03918216815291166020820152604081019190915260600190565b919082039182116125ae57565b1561261957565b60405162461bcd60e51b815260206004820152602160248201527f4f6e6c79206f776e65722063616e2063616c6c20746869732066756e6374696f6044820152603760f91b6064820152608490fd5b1561266f57565b60405162461bcd60e51b815260206004820152602760248201527f4e6f74206c697374656420696e2074686520656e676c6973682061756374696f60448201526637103634b9ba1760c91b6064820152608490fd5b919082018092116125ae57565b156126d857565b60405162461bcd60e51b815260206004820152601260248201527124b73b30b634b2103bb4ba34323930bbb2b960711b6044820152606490fd5b1561271957565b60405162461bcd60e51b815260206004820152600e60248201526d41756374696f6e20656e6465642160901b6044820152606490fd5b1561275657565b60405162461bcd60e51b815260206004820152601160248201527020b63932b0b23c9039b7b6321037baba1760791b6044820152606490fd5b1561279657565b60405162461bcd60e51b815260206004820152603860248201527f596f752073686f756c642073656e64206120707269636520746861742069732060448201527736b7b932903a3430b71031bab93932b73a10383934b1b29760411b6064820152608490fd5b1561280357565b60405162461bcd60e51b815260206004820152601b60248201527f596f7520646f6e2774206861766520616e792062616c616e63652e00000000006044820152606490fd5b61289f9080600052600f602052612899604060002054916001612890610e10612889600561288061287887612323565b505498612287565b50015442612605565b0492612323565b5001549061259b565b90612605565b90565b6040516331a9108f60e11b815260048101929092526001600160a01b03906020908390602490829085165afa918215612905576000926128e4575b5016331490565b6128fe91925060203d602011610ee357610ed581836122eb565b90386128dd565b6040513d6000823e3d90fd5b80518210156122525760209160051b010190565b60405163095ea7b360e01b602082018181526001600160a01b0385166024840152604480840196909652948252949390926129616064856122eb565b83516000926001600160a01b039291858416918591829182855af190612985612b7d565b82612a14575b5081612a09575b50156129a2575b50505050509050565b6040519660208801521660248601528060448601526044855260808501908582106001600160401b038311176129f557506129ea93946129e59160405282612bd4565b612bd4565b803880808080612999565b634e487b7160e01b81526041600452602490fd5b90503b151538612992565b80519192508115918215612a2c575b5050903861298b565b612a3f9250602080918301019101612bbc565b3880612a23565b9091612710612a576004548561259b565b0460018060a01b0380931690612a93612a8b82600097858952600860205260408920612a848382546126c4565b9055612605565b6003546126c4565b600355813b156106a4579184606492819594604051988996879563eff4fda360e01b8752166004860152602485015260448401525af1908115612ae35750612ad85750565b612ae1906122d8565b565b604051903d90823e3d90fd5b600260005414612b00576002600055565b604051633ee5aeb560e01b8152600490fd5b60405163a9059cbb60e01b60208201526001600160a01b0390921660248301526044820192909252612ae1916129e582606481015b03601f1981018452836122eb565b906129e590612b47612ae1956040519586936323b872dd60e01b6020860152602485016125e3565b3d15612bb7573d906001600160401b0382116122c25760405191612bab601f8201601f1916602001846122eb565b82523d6000602084013e565b606090565b90816020910312610941575180151581036109415790565b600080612bfd9260018060a01b03169360208151910182865af1612bf6612b7d565b9083612c46565b8051908115159182612c2b575b5050612c135750565b60249060405190635274afe760e01b82526004820152fd5b612c3e9250602080918301019101612bbc565b153880612c0a565b90612c6d5750805115612c5b57805190602001fd5b604051630a12f52160e11b8152600490fd5b81511580612ca0575b612c7e575090565b604051639996b31560e01b81526001600160a01b039091166004820152602490fd5b50803b15612c7656fea2646970667358221220eb46ad658fd1e0decba361d71af73ddc382e81315199864d075fb70f8b6bf40d64736f6c63430008180033",
  "linkReferences": {},
  "deployedLinkReferences": {}
}